{
  "_format": "hh-sol-artifact-1",
  "contractName": "NFTFuturesBetting",
  "sourceName": "contracts/NFT_Futures_Betting.sol",
  "abi": [
    {
      "inputs": [],
      "stateMutability": "payable",
      "type": "constructor"
    },
    {
      "anonymous": false,
      "inputs": [
        {
          "indexed": true,
          "internalType": "bytes32",
          "name": "id",
          "type": "bytes32"
        }
      ],
      "name": "ChainlinkCancelled",
      "type": "event"
    },
    {
      "anonymous": false,
      "inputs": [
        {
          "indexed": true,
          "internalType": "bytes32",
          "name": "id",
          "type": "bytes32"
        }
      ],
      "name": "ChainlinkFulfilled",
      "type": "event"
    },
    {
      "anonymous": false,
      "inputs": [
        {
          "indexed": true,
          "internalType": "bytes32",
          "name": "id",
          "type": "bytes32"
        }
      ],
      "name": "ChainlinkRequested",
      "type": "event"
    },
    {
      "anonymous": false,
      "inputs": [
        {
          "indexed": true,
          "internalType": "bytes32",
          "name": "requestId",
          "type": "bytes32"
        },
        {
          "indexed": false,
          "internalType": "uint256",
          "name": "volume",
          "type": "uint256"
        }
      ],
      "name": "RequestVolume",
      "type": "event"
    },
    {
      "inputs": [],
      "name": "deposit",
      "outputs": [],
      "stateMutability": "payable",
      "type": "function"
    },
    {
      "inputs": [
        {
          "internalType": "bytes32",
          "name": "_requestId",
          "type": "bytes32"
        },
        {
          "internalType": "uint256",
          "name": "propertyValue",
          "type": "uint256"
        }
      ],
      "name": "fulfill",
      "outputs": [],
      "stateMutability": "nonpayable",
      "type": "function"
    },
    {
      "inputs": [],
      "name": "getAllBets",
      "outputs": [
        {
          "components": [
            {
              "internalType": "uint256",
              "name": "betId",
              "type": "uint256"
            },
            {
              "internalType": "string",
              "name": "nftCollection",
              "type": "string"
            },
            {
              "internalType": "string",
              "name": "property",
              "type": "string"
            },
            {
              "components": [
                {
                  "internalType": "address",
                  "name": "user",
                  "type": "address"
                },
                {
                  "internalType": "uint256",
                  "name": "prediction",
                  "type": "uint256"
                }
              ],
              "internalType": "struct NFTFuturesBetting.Bid",
              "name": "userBid1",
              "type": "tuple"
            },
            {
              "components": [
                {
                  "internalType": "address",
                  "name": "user",
                  "type": "address"
                },
                {
                  "internalType": "uint256",
                  "name": "prediction",
                  "type": "uint256"
                }
              ],
              "internalType": "struct NFTFuturesBetting.Bid",
              "name": "userBid2",
              "type": "tuple"
            },
            {
              "internalType": "enum NFTFuturesBetting.BetStatus",
              "name": "status",
              "type": "uint8"
            },
            {
              "internalType": "uint256",
              "name": "startTime",
              "type": "uint256"
            },
            {
              "internalType": "uint256",
              "name": "endTime",
              "type": "uint256"
            },
            {
              "internalType": "uint256",
              "name": "closingPropertyValue",
              "type": "uint256"
            },
            {
              "internalType": "address",
              "name": "winner",
              "type": "address"
            }
          ],
          "internalType": "struct NFTFuturesBetting.Bet[]",
          "name": "betsValues",
          "type": "tuple[]"
        }
      ],
      "stateMutability": "view",
      "type": "function"
    },
    {
      "inputs": [],
      "name": "getAllBetsOfTheUser",
      "outputs": [
        {
          "components": [
            {
              "internalType": "uint256",
              "name": "betId",
              "type": "uint256"
            },
            {
              "internalType": "string",
              "name": "nftCollection",
              "type": "string"
            },
            {
              "internalType": "string",
              "name": "property",
              "type": "string"
            },
            {
              "components": [
                {
                  "internalType": "address",
                  "name": "user",
                  "type": "address"
                },
                {
                  "internalType": "uint256",
                  "name": "prediction",
                  "type": "uint256"
                }
              ],
              "internalType": "struct NFTFuturesBetting.Bid",
              "name": "userBid1",
              "type": "tuple"
            },
            {
              "components": [
                {
                  "internalType": "address",
                  "name": "user",
                  "type": "address"
                },
                {
                  "internalType": "uint256",
                  "name": "prediction",
                  "type": "uint256"
                }
              ],
              "internalType": "struct NFTFuturesBetting.Bid",
              "name": "userBid2",
              "type": "tuple"
            },
            {
              "internalType": "enum NFTFuturesBetting.BetStatus",
              "name": "status",
              "type": "uint8"
            },
            {
              "internalType": "uint256",
              "name": "startTime",
              "type": "uint256"
            },
            {
              "internalType": "uint256",
              "name": "endTime",
              "type": "uint256"
            },
            {
              "internalType": "uint256",
              "name": "closingPropertyValue",
              "type": "uint256"
            },
            {
              "internalType": "address",
              "name": "winner",
              "type": "address"
            }
          ],
          "internalType": "struct NFTFuturesBetting.Bet[]",
          "name": "",
          "type": "tuple[]"
        }
      ],
      "stateMutability": "view",
      "type": "function"
    },
    {
      "inputs": [
        {
          "internalType": "string",
          "name": "nftCollection",
          "type": "string"
        },
        {
          "internalType": "string",
          "name": "property",
          "type": "string"
        },
        {
          "internalType": "uint256",
          "name": "prediction",
          "type": "uint256"
        }
      ],
      "name": "placeABid",
      "outputs": [],
      "stateMutability": "payable",
      "type": "function"
    },
    {
      "inputs": [
        {
          "internalType": "uint256",
          "name": "index",
          "type": "uint256"
        }
      ],
      "name": "printABet",
      "outputs": [],
      "stateMutability": "view",
      "type": "function"
    },
    {
      "inputs": [],
      "name": "withdrawLink",
      "outputs": [],
      "stateMutability": "nonpayable",
      "type": "function"
    },
    {
      "stateMutability": "payable",
      "type": "receive"
    }
  ],
  "bytecode": "0x60806040526001600455662386f26fc100006009556200003973a36085f69e2889c224210f603d836748e7dc0088620000f760201b60201c565b6200005e7374ecc8bdeb76f2c6760ed2dc8a46ca5e581fa6566200013b60201b60201c565b7f6361393833363663633733313439353762386330313263373266303561656562600681905550600a670de0b6b3a764000060016200009e9190620001b7565b620000aa91906200017f565b60078190555033600a60006101000a81548173ffffffffffffffffffffffffffffffffffffffff021916908373ffffffffffffffffffffffffffffffffffffffff16021790555062000280565b80600260006101000a81548173ffffffffffffffffffffffffffffffffffffffff021916908373ffffffffffffffffffffffffffffffffffffffff16021790555050565b80600360006101000a81548173ffffffffffffffffffffffffffffffffffffffff021916908373ffffffffffffffffffffffffffffffffffffffff16021790555050565b60006200018c8262000218565b9150620001998362000218565b925082620001ac57620001ab62000251565b5b828204905092915050565b6000620001c48262000218565b9150620001d18362000218565b9250817fffffffffffffffffffffffffffffffffffffffffffffffffffffffffffffffff04831182151516156200020d576200020c62000222565b5b828202905092915050565b6000819050919050565b7f4e487b7100000000000000000000000000000000000000000000000000000000600052601160045260246000fd5b7f4e487b7100000000000000000000000000000000000000000000000000000000600052601260045260246000fd5b614f7f80620002906000396000f3fe6080604052600436106100735760003560e01c806372b2d89f1161004e57806372b2d89f146100fc5780638dc654a214610118578063a02079f41461012f578063d0e30db01461015a5761007a565b80624d00091461007f5780634357855e146100a8578063700eae73146100d15761007a565b3661007a57005b600080fd5b34801561008b57600080fd5b506100a660048036038101906100a19190613b69565b610164565b005b3480156100b457600080fd5b506100cf60048036038101906100ca9190613aa4565b610517565b005b3480156100dd57600080fd5b506100e6610d93565b6040516100f391906143be565b60405180910390f35b61011660048036038101906101119190613ae0565b6111fa565b005b34801561012457600080fd5b5061012d61155c565b005b34801561013b57600080fd5b506101446116bf565b60405161015191906143be565b60405180910390f35b610162611b25565b005b6000600b6000600c84815481106101a4577f4e487b7100000000000000000000000000000000000000000000000000000000600052603260045260246000fd5b9060005260206000200154815260200190815260200160002060405180610140016040529081600082015481526020016001820180546101e390614aae565b80601f016020809104026020016040519081016040528092919081815260200182805461020f90614aae565b801561025c5780601f106102315761010080835404028352916020019161025c565b820191906000526020600020905b81548152906001019060200180831161023f57829003601f168201915b5050505050815260200160028201805461027590614aae565b80601f01602080910402602001604051908101604052809291908181526020018280546102a190614aae565b80156102ee5780601f106102c3576101008083540402835291602001916102ee565b820191906000526020600020905b8154815290600101906020018083116102d157829003601f168201915b50505050508152602001600382016040518060400160405290816000820160009054906101000a900473ffffffffffffffffffffffffffffffffffffffff1673ffffffffffffffffffffffffffffffffffffffff1673ffffffffffffffffffffffffffffffffffffffff1681526020016001820154815250508152602001600582016040518060400160405290816000820160009054906101000a900473ffffffffffffffffffffffffffffffffffffffff1673ffffffffffffffffffffffffffffffffffffffff1673ffffffffffffffffffffffffffffffffffffffff16815260200160018201548152505081526020016007820160009054906101000a900460ff16600381111561042a577f4e487b7100000000000000000000000000000000000000000000000000000000600052602160045260246000fd5b6003811115610462577f4e487b7100000000000000000000000000000000000000000000000000000000600052602160045260246000fd5b81526020016008820154815260200160098201548152602001600a8201548152602001600b820160009054906101000a900473ffffffffffffffffffffffffffffffffffffffff1673ffffffffffffffffffffffffffffffffffffffff1673ffffffffffffffffffffffffffffffffffffffff168152505090506104f88160000151826101200151836060015160000151611b27565b61051381608001516000015182602001518360400151611bc6565b5050565b816005600082815260200190815260200160002060009054906101000a900473ffffffffffffffffffffffffffffffffffffffff1673ffffffffffffffffffffffffffffffffffffffff163373ffffffffffffffffffffffffffffffffffffffff16146105b9576040517f08c379a00000000000000000000000000000000000000000000000000000000081526004016105b0906145a8565b60405180910390fd5b6005600082815260200190815260200160002060006101000a81549073ffffffffffffffffffffffffffffffffffffffff0219169055807f7cc135e0cebb02c3480ae5d74d377283180a2601f8f644edf7987b009316c63a60405160405180910390a261065a6040518060400160405280600a81526020017f496e2046756c66696c6c00000000000000000000000000000000000000000000815250611c65565b6000600e60008581526020019081526020016000205490506000600b600083815260200190815260200160002060405180610140016040529081600082015481526020016001820180546106ad90614aae565b80601f01602080910402602001604051908101604052809291908181526020018280546106d990614aae565b80156107265780601f106106fb57610100808354040283529160200191610726565b820191906000526020600020905b81548152906001019060200180831161070957829003601f168201915b5050505050815260200160028201805461073f90614aae565b80601f016020809104026020016040519081016040528092919081815260200182805461076b90614aae565b80156107b85780601f1061078d576101008083540402835291602001916107b8565b820191906000526020600020905b81548152906001019060200180831161079b57829003601f168201915b50505050508152602001600382016040518060400160405290816000820160009054906101000a900473ffffffffffffffffffffffffffffffffffffffff1673ffffffffffffffffffffffffffffffffffffffff1673ffffffffffffffffffffffffffffffffffffffff1681526020016001820154815250508152602001600582016040518060400160405290816000820160009054906101000a900473ffffffffffffffffffffffffffffffffffffffff1673ffffffffffffffffffffffffffffffffffffffff1673ffffffffffffffffffffffffffffffffffffffff16815260200160018201548152505081526020016007820160009054906101000a900460ff1660038111156108f4577f4e487b7100000000000000000000000000000000000000000000000000000000600052602160045260246000fd5b600381111561092c577f4e487b7100000000000000000000000000000000000000000000000000000000600052602160045260246000fd5b81526020016008820154815260200160098201548152602001600a8201548152602001600b820160009054906101000a900473ffffffffffffffffffffffffffffffffffffffff1673ffffffffffffffffffffffffffffffffffffffff1673ffffffffffffffffffffffffffffffffffffffff1681525050905083816101000181815250506000816060015160200151905060008260800151602001519050610a2d6040518060400160405280601281526020017f42657449442c2050726564696374696f6e730000000000000000000000000000815250858484604051602001610a19939291906141e2565b604051602081830303815290604052611cfe565b610a418682610a3c9190614967565b611d9a565b610a558784610a509190614967565b611d9a565b13610ade5782606001516000015183610120019073ffffffffffffffffffffffffffffffffffffffff16908173ffffffffffffffffffffffffffffffffffffffff1681525050610ad96040518060400160405280601481526020017f557365722031206973207468652077696e6e6572000000000000000000000000815250611c65565b610b5e565b82608001516000015183610120019073ffffffffffffffffffffffffffffffffffffffff16908173ffffffffffffffffffffffffffffffffffffffff1681525050610b5d6040518060400160405280601481526020017f557365722032206973207468652077696e6e6572000000000000000000000000815250611c65565b5b600083610120015173ffffffffffffffffffffffffffffffffffffffff166009546002610b8b9190614879565b604051610b97906141cd565b60006040518083038185875af1925050503d8060008114610bd4576040519150601f19603f3d011682016040523d82523d6000602084013e610bd9565b606091505b50509050610c216040518060400160405280601481526020017f53656e74206d6f6e657920746f2077696e6e6572000000000000000000000000815250856101200151611dbc565b8015610ca95760028460a001906003811115610c66577f4e487b7100000000000000000000000000000000000000000000000000000000600052602160045260246000fd5b90816003811115610ca0577f4e487b7100000000000000000000000000000000000000000000000000000000600052602160045260246000fd5b81525050610d27565b60038460a001906003811115610ce8577f4e487b7100000000000000000000000000000000000000000000000000000000600052602160045260246000fd5b90816003811115610d22577f4e487b7100000000000000000000000000000000000000000000000000000000600052602160045260246000fd5b815250505b610d896040518060400160405280600a81526020017f42657420737461747573000000000000000000000000000000000000000000008152508560a00151604051602001610d7591906140e4565b604051602081830303815290604052611cfe565b5050505050505050565b60606000600c80549050905060008167ffffffffffffffff811115610de1577f4e487b7100000000000000000000000000000000000000000000000000000000600052604160045260246000fd5b604051908082528060200260200182016040528015610e1a57816020015b610e076137d6565b815260200190600190039081610dff5790505b50905060005b828110156111f157600b6000600c8381548110610e66577f4e487b7100000000000000000000000000000000000000000000000000000000600052603260045260246000fd5b906000526020600020015481526020019081526020016000206040518061014001604052908160008201548152602001600182018054610ea590614aae565b80601f0160208091040260200160405190810160405280929190818152602001828054610ed190614aae565b8015610f1e5780601f10610ef357610100808354040283529160200191610f1e565b820191906000526020600020905b815481529060010190602001808311610f0157829003601f168201915b50505050508152602001600282018054610f3790614aae565b80601f0160208091040260200160405190810160405280929190818152602001828054610f6390614aae565b8015610fb05780601f10610f8557610100808354040283529160200191610fb0565b820191906000526020600020905b815481529060010190602001808311610f9357829003601f168201915b50505050508152602001600382016040518060400160405290816000820160009054906101000a900473ffffffffffffffffffffffffffffffffffffffff1673ffffffffffffffffffffffffffffffffffffffff1673ffffffffffffffffffffffffffffffffffffffff1681526020016001820154815250508152602001600582016040518060400160405290816000820160009054906101000a900473ffffffffffffffffffffffffffffffffffffffff1673ffffffffffffffffffffffffffffffffffffffff1673ffffffffffffffffffffffffffffffffffffffff16815260200160018201548152505081526020016007820160009054906101000a900460ff1660038111156110ec577f4e487b7100000000000000000000000000000000000000000000000000000000600052602160045260246000fd5b6003811115611124577f4e487b7100000000000000000000000000000000000000000000000000000000600052602160045260246000fd5b81526020016008820154815260200160098201548152602001600a8201548152602001600b820160009054906101000a900473ffffffffffffffffffffffffffffffffffffffff1673ffffffffffffffffffffffffffffffffffffffff1673ffffffffffffffffffffffffffffffffffffffff16815250508282815181106111d5577f4e487b7100000000000000000000000000000000000000000000000000000000600052603260045260246000fd5b6020026020010181905250806111ea90614ae0565b9050610e20565b50809250505090565b600060405180604001604052803373ffffffffffffffffffffffffffffffffffffffff16815260200183815250905060006112be87878080601f016020809104026020016040519081016040528093929190818152602001838380828437600081840152601f19601f8201169050808301925050505050505086868080601f016020809104026020016040519081016040528093929190818152602001838380828437600081840152601f19601f8201169050808301925050505050505084611e58565b90506112e4816060015160000151826080015160000151836020015184604001516124cc565b60003073ffffffffffffffffffffffffffffffffffffffff163460405161130a906141cd565b60006040518083038185875af1925050503d8060008114611347576040519150601f19603f3d011682016040523d82523d6000602084013e61134c565b606091505b5050905080611390576040517f08c379a000000000000000000000000000000000000000000000000000000000815260040161138790614548565b60405180910390fd5b600073ffffffffffffffffffffffffffffffffffffffff1682608001516000015173ffffffffffffffffffffffffffffffffffffffff16146114b55760018260a00190600381111561140b577f4e487b7100000000000000000000000000000000000000000000000000000000600052602160045260246000fd5b90816003811115611445577f4e487b7100000000000000000000000000000000000000000000000000000000600052602160045260246000fd5b815250506114876040518060400160405280600f81526020017f52756e6e696e6720746865206265740000000000000000000000000000000000815250611c65565b6114ab826060015160000151836080015160000151846020015185604001516124cc565b6114b48261256e565b5b6115526040518060400160405280601b81526020017f506c61636520612062696420737461727420666f7220757365723a0000000000815250336040518060400160405280600181526020017f2c000000000000000000000000000000000000000000000000000000000000008152508b8b8b8b8b60405160200161153e9594939291906140ff565b604051602081830303815290604052612645565b5050505050505050565b60006115666126e7565b90508073ffffffffffffffffffffffffffffffffffffffff1663a9059cbb338373ffffffffffffffffffffffffffffffffffffffff166370a08231306040518263ffffffff1660e01b81526004016115be919061421f565b60206040518083038186803b1580156115d657600080fd5b505afa1580156115ea573d6000803e3d6000fd5b505050506040513d601f19601f8201168201806040525081019061160e9190613b92565b6040518363ffffffff1660e01b815260040161162b9291906142d2565b602060405180830381600087803b15801561164557600080fd5b505af1158015611659573d6000803e3d6000fd5b505050506040513d601f19601f8201168201806040525081019061167d9190613a7b565b6116bc576040517f08c379a00000000000000000000000000000000000000000000000000000000081526004016116b390614588565b60405180910390fd5b50565b60608060005b600c80549050811015611b1d576000600b6000600c8481548110611712577f4e487b7100000000000000000000000000000000000000000000000000000000600052603260045260246000fd5b90600052602060002001548152602001908152602001600020604051806101400160405290816000820154815260200160018201805461175190614aae565b80601f016020809104026020016040519081016040528092919081815260200182805461177d90614aae565b80156117ca5780601f1061179f576101008083540402835291602001916117ca565b820191906000526020600020905b8154815290600101906020018083116117ad57829003601f168201915b505050505081526020016002820180546117e390614aae565b80601f016020809104026020016040519081016040528092919081815260200182805461180f90614aae565b801561185c5780601f106118315761010080835404028352916020019161185c565b820191906000526020600020905b81548152906001019060200180831161183f57829003601f168201915b50505050508152602001600382016040518060400160405290816000820160009054906101000a900473ffffffffffffffffffffffffffffffffffffffff1673ffffffffffffffffffffffffffffffffffffffff1673ffffffffffffffffffffffffffffffffffffffff1681526020016001820154815250508152602001600582016040518060400160405290816000820160009054906101000a900473ffffffffffffffffffffffffffffffffffffffff1673ffffffffffffffffffffffffffffffffffffffff1673ffffffffffffffffffffffffffffffffffffffff16815260200160018201548152505081526020016007820160009054906101000a900460ff166003811115611998577f4e487b7100000000000000000000000000000000000000000000000000000000600052602160045260246000fd5b60038111156119d0577f4e487b7100000000000000000000000000000000000000000000000000000000600052602160045260246000fd5b81526020016008820154815260200160098201548152602001600a8201548152602001600b820160009054906101000a900473ffffffffffffffffffffffffffffffffffffffff1673ffffffffffffffffffffffffffffffffffffffff1673ffffffffffffffffffffffffffffffffffffffff168152505090503373ffffffffffffffffffffffffffffffffffffffff1681606001516000015173ffffffffffffffffffffffffffffffffffffffff161480611abf57503373ffffffffffffffffffffffffffffffffffffffff1681608001516000015173ffffffffffffffffffffffffffffffffffffffff16145b15611b0b578083845181518110611aff577f4e487b7100000000000000000000000000000000000000000000000000000000600052603260045260246000fd5b60200260200101819052505b5080611b1690614ae0565b90506116c5565b508091505090565b565b611bc1838383604051602401611b3f939291906145e3565b6040516020818303038152906040527f7d77a61b000000000000000000000000000000000000000000000000000000007bffffffffffffffffffffffffffffffffffffffffffffffffffffffff19166020820180517bffffffffffffffffffffffffffffffffffffffffffffffffffffffff8381831617835250505050612711565b505050565b611c60838383604051602401611bde9392919061428d565b6040516020818303038152906040527ffb772265000000000000000000000000000000000000000000000000000000007bffffffffffffffffffffffffffffffffffffffffffffffffffffffff19166020820180517bffffffffffffffffffffffffffffffffffffffffffffffffffffffff8381831617835250505050612711565b505050565b611cfb81604051602401611c7991906143e0565b6040516020818303038152906040527f41304fac000000000000000000000000000000000000000000000000000000007bffffffffffffffffffffffffffffffffffffffffffffffffffffffff19166020820180517bffffffffffffffffffffffffffffffffffffffffffffffffffffffff8381831617835250505050612711565b50565b611d968282604051602401611d1492919061448c565b6040516020818303038152906040527f4b5c4277000000000000000000000000000000000000000000000000000000007bffffffffffffffffffffffffffffffffffffffffffffffffffffffff19166020820180517bffffffffffffffffffffffffffffffffffffffffffffffffffffffff8381831617835250505050612711565b5050565b600080821215611db35781611dae90614ba4565b611db5565b815b9050919050565b611e548282604051602401611dd2929190614402565b6040516020818303038152906040527f319af333000000000000000000000000000000000000000000000000000000007bffffffffffffffffffffffffffffffffffffffffffffffffffffffff19166020820180517bffffffffffffffffffffffffffffffffffffffffffffffffffffffff8381831617835250505050612711565b5050565b611e606137d6565b6000600d611e6e868661273a565b604051611e7b9190614138565b9081526020016040518091039020805480602002602001604051908101604052809291908181526020018280548015611ed357602002820191906000526020600020905b815481526020019060010190808311611ebf575b50505050509050600081511415611ef757611eef858585612766565b9150506124c5565b6000600b60008360018551611f0c9190614967565b81518110611f43577f4e487b7100000000000000000000000000000000000000000000000000000000600052603260045260246000fd5b602002602001015181526020019081526020016000206040518061014001604052908160008201548152602001600182018054611f7f90614aae565b80601f0160208091040260200160405190810160405280929190818152602001828054611fab90614aae565b8015611ff85780601f10611fcd57610100808354040283529160200191611ff8565b820191906000526020600020905b815481529060010190602001808311611fdb57829003601f168201915b5050505050815260200160028201805461201190614aae565b80601f016020809104026020016040519081016040528092919081815260200182805461203d90614aae565b801561208a5780601f1061205f5761010080835404028352916020019161208a565b820191906000526020600020905b81548152906001019060200180831161206d57829003601f168201915b50505050508152602001600382016040518060400160405290816000820160009054906101000a900473ffffffffffffffffffffffffffffffffffffffff1673ffffffffffffffffffffffffffffffffffffffff1673ffffffffffffffffffffffffffffffffffffffff1681526020016001820154815250508152602001600582016040518060400160405290816000820160009054906101000a900473ffffffffffffffffffffffffffffffffffffffff1673ffffffffffffffffffffffffffffffffffffffff1673ffffffffffffffffffffffffffffffffffffffff16815260200160018201548152505081526020016007820160009054906101000a900460ff1660038111156121c6577f4e487b7100000000000000000000000000000000000000000000000000000000600052602160045260246000fd5b60038111156121fe577f4e487b7100000000000000000000000000000000000000000000000000000000600052602160045260246000fd5b81526020016008820154815260200160098201548152602001600a8201548152602001600b820160009054906101000a900473ffffffffffffffffffffffffffffffffffffffff1673ffffffffffffffffffffffffffffffffffffffff1673ffffffffffffffffffffffffffffffffffffffff16815250509050600260038111156122b2577f4e487b7100000000000000000000000000000000000000000000000000000000600052602160045260246000fd5b8160a0015160038111156122ef577f4e487b7100000000000000000000000000000000000000000000000000000000600052602160045260246000fd5b141561230957612300868686612766565b925050506124c5565b60006003811115612343577f4e487b7100000000000000000000000000000000000000000000000000000000600052602160045260246000fd5b8160a001516003811115612380577f4e487b7100000000000000000000000000000000000000000000000000000000600052602160045260246000fd5b1415612407573373ffffffffffffffffffffffffffffffffffffffff1681606001516000015173ffffffffffffffffffffffffffffffffffffffff1614156123fd576040517f08c379a00000000000000000000000000000000000000000000000000000000081526004016123f490614568565b60405180910390fd5b8381608001819052505b60016003811115612441577f4e487b7100000000000000000000000000000000000000000000000000000000600052602160045260246000fd5b8160a00151600381111561247e577f4e487b7100000000000000000000000000000000000000000000000000000000600052602160045260246000fd5b14156124bf576040517f08c379a00000000000000000000000000000000000000000000000000000000081526004016124b690614528565b60405180910390fd5b80925050505b9392505050565b612568848484846040516024016124e6949392919061423a565b6040516020818303038152906040527f21bdaf25000000000000000000000000000000000000000000000000000000007bffffffffffffffffffffffffffffffffffffffffffffffffffffffff19166020820180517bffffffffffffffffffffffffffffffffffffffffffffffffffffffff8381831617835250505050612711565b50505050565b6125ac6040518060400160405280600a81526020017f496e2072756e2062657400000000000000000000000000000000000000000000815250611c65565b60006125c082602001518360400151612a99565b90506126256040518060400160405280601181526020017f526571756573742049442c206265744964000000000000000000000000000000815250836000015183604051602001612611919061409d565b604051602081830303815290604052612d28565b8160000151600e6000838152602001908152602001600020819055505050565b6126e18484848460405160240161265f9493929190614432565b6040516020818303038152906040527f245986f2000000000000000000000000000000000000000000000000000000007bffffffffffffffffffffffffffffffffffffffffffffffffffffffff19166020820180517bffffffffffffffffffffffffffffffffffffffffffffffffffffffff8381831617835250505050612711565b50505050565b6000600260009054906101000a900473ffffffffffffffffffffffffffffffffffffffff16905090565b60008151905060006a636f6e736f6c652e6c6f679050602083016000808483855afa5050505050565b6060828260405160200161274f92919061414f565b604051602081830303815290604052905092915050565b61276e6137d6565b6000604051806101400160405280600c8054905081526020018681526020018581526020018481526020016040518060400160405280600073ffffffffffffffffffffffffffffffffffffffff1681526020016000815250815260200160006003811115612805577f4e487b7100000000000000000000000000000000000000000000000000000000600052602160045260246000fd5b81526020014281526020016000815260200160008152602001600073ffffffffffffffffffffffffffffffffffffffff16815250905080600b600083600001518152602001908152602001600020600082015181600001556020820151816001019080519060200190612879929190613883565b506040820151816002019080519060200190612896929190613883565b5060608201518160030160008201518160000160006101000a81548173ffffffffffffffffffffffffffffffffffffffff021916908373ffffffffffffffffffffffffffffffffffffffff16021790555060208201518160010155505060808201518160050160008201518160000160006101000a81548173ffffffffffffffffffffffffffffffffffffffff021916908373ffffffffffffffffffffffffffffffffffffffff16021790555060208201518160010155505060a08201518160070160006101000a81548160ff021916908360038111156129a0577f4e487b7100000000000000000000000000000000000000000000000000000000600052602160045260246000fd5b021790555060c0820151816008015560e0820151816009015561010082015181600a015561012082015181600b0160006101000a81548173ffffffffffffffffffffffffffffffffffffffff021916908373ffffffffffffffffffffffffffffffffffffffff160217905550905050600c81600001519080600181540180825580915050600190039060005260206000200160009091909190915055600d612a48868661273a565b604051612a559190614138565b908152602001604051809103902081600001519080600181540180825580915050600190039060005260206000200160009091909190915055809150509392505050565b6000612ad96040518060400160405280601e81526020017f496e207265717565737420636f6c6c656374696f6e2070726f70657274790000815250611c65565b6000612aef60065430634357855e60e01b612dc7565b9050612b2f6040518060400160405280601281526020017f52657175657374696e67206f70656e7365610000000000000000000000000000815250611c65565b612b986040518060400160405280600381526020017f676574000000000000000000000000000000000000000000000000000000000081525085604051602001612b79919061417e565b60405160208183030381529060405283612df89092919063ffffffff16565b612bd66040518060400160405280600d81526020017f4164646564207265717565737400000000000000000000000000000000000000815250611c65565b612c3f6040518060400160405280600481526020017f706174680000000000000000000000000000000000000000000000000000000081525084604051602001612c2091906141ab565b60405160208183030381529060405283612df89092919063ffffffff16565b612c7d6040518060400160405280600a81526020017f4164646564207061746800000000000000000000000000000000000000000000815250611c65565b6000670de0b6b3a76400009050612cd46040518060400160405280600581526020017f74696d65730000000000000000000000000000000000000000000000000000008152508284612e2b9092919063ffffffff16565b612d126040518060400160405280601481526020017f636f6e7665727465642074686520616d6f756e74000000000000000000000000815250611c65565b612d1e82600754612e5e565b9250505092915050565b612dc2838383604051602401612d40939291906144c3565b6040516020818303038152906040527fa3f5c739000000000000000000000000000000000000000000000000000000007bffffffffffffffffffffffffffffffffffffffffffffffffffffffff19166020820180517bffffffffffffffffffffffffffffffffffffffffffffffffffffffff8381831617835250505050612711565b505050565b612dcf613909565b612dd7613909565b612dee85858584612e95909392919063ffffffff16565b9150509392505050565b612e0f828460800151612f4590919063ffffffff16565b612e26818460800151612f4590919063ffffffff16565b505050565b612e42828460800151612f4590919063ffffffff16565b612e59818460800151612f6a90919063ffffffff16565b505050565b6000612e8d600360009054906101000a900473ffffffffffffffffffffffffffffffffffffffff168484613017565b905092915050565b612e9d613909565b612ead85608001516101006130e3565b508385600001818152505082856020019073ffffffffffffffffffffffffffffffffffffffff16908173ffffffffffffffffffffffffffffffffffffffff16815250508185604001907bffffffffffffffffffffffffffffffffffffffffffffffffffffffff191690817bffffffffffffffffffffffffffffffffffffffffffffffffffffffff191681525050849050949350505050565b612f52826003835161314d565b612f6581836132d290919063ffffffff16565b505050565b7fffffffffffffffffffffffffffffffffffffffffffffffff0000000000000000811215612fa157612f9c82826132f4565b613013565b67ffffffffffffffff811315612fc057612fbb828261336b565b613012565b60008112612fd957612fd48260008361314d565b613011565b613010826001837fffffffffffffffffffffffffffffffffffffffffffffffffffffffffffffffff61300b91906148d3565b61314d565b5b5b5b5050565b600080600454905060018161302c91906146b2565b6004819055506000634042994660e01b60008087600001513089604001518760018c608001516000015160405160240161306d9897969594939291906142fb565b604051602081830303815290604052907bffffffffffffffffffffffffffffffffffffffffffffffffffffffff19166020820180517bffffffffffffffffffffffffffffffffffffffffffffffffffffffff838183161783525050505090506130d8868386846133b7565b925050509392505050565b6130eb613976565b60006020836130fa9190614b73565b146131265760208261310c9190614b73565b60206131189190614967565b8261312391906146b2565b91505b81836020018181525050604051808452600081528281016020016040525082905092915050565b60178167ffffffffffffffff16116131845761317e8160058460ff16901b60ff16178461355b90919063ffffffff16565b506132cd565b60ff8167ffffffffffffffff16116131da576131b3601860058460ff16901b178461355b90919063ffffffff16565b506131d48167ffffffffffffffff1660018561357b9092919063ffffffff16565b506132cc565b61ffff8167ffffffffffffffff16116132315761320a601960058460ff16901b178461355b90919063ffffffff16565b5061322b8167ffffffffffffffff1660028561357b9092919063ffffffff16565b506132cb565b63ffffffff8167ffffffffffffffff161161328a57613263601a60058460ff16901b178461355b90919063ffffffff16565b506132848167ffffffffffffffff1660048561357b9092919063ffffffff16565b506132ca565b6132a7601b60058460ff16901b178461355b90919063ffffffff16565b506132c88167ffffffffffffffff1660088561357b9092919063ffffffff16565b505b5b5b5b505050565b6132da613976565b6132ec8384600001515184855161359d565b905092915050565b61331260036005600660ff16901b178361355b90919063ffffffff16565b5061336782827fffffffffffffffffffffffffffffffffffffffffffffffffffffffffffffffff61334391906148d3565b60405160200161335391906145c8565b60405160208183030381529060405261368c565b5050565b61338960026005600660ff16901b178361355b90919063ffffffff16565b506133b3828260405160200161339f91906145c8565b60405160208183030381529060405261368c565b5050565b600030846040516020016133cc9291906140b8565b604051602081830303815290604052805190602001209050846005600083815260200190815260200160002060006101000a81548173ffffffffffffffffffffffffffffffffffffffff021916908373ffffffffffffffffffffffffffffffffffffffff160217905550807fb5e6e01e79f91267dc17b4e6314d5d4d03593d2ceee0fbb452b750bd70ea5af960405160405180910390a2600260009054906101000a900473ffffffffffffffffffffffffffffffffffffffff1673ffffffffffffffffffffffffffffffffffffffff16634000aea08685856040518463ffffffff1660e01b81526004016134c293929190614380565b602060405180830381600087803b1580156134dc57600080fd5b505af11580156134f0573d6000803e3d6000fd5b505050506040513d601f19601f820116820180604052508101906135149190613a7b565b613553576040517f08c379a000000000000000000000000000000000000000000000000000000000815260040161354a90614508565b60405180910390fd5b949350505050565b613563613976565b61357383846000015151846136b1565b905092915050565b613583613976565b613594848560000151518585613708565b90509392505050565b6135a5613976565b82518211156135b357600080fd5b846020015182856135c491906146b2565b11156135f9576135f88560026135e9886020015188876135e491906146b2565b613796565b6135f39190614879565b6137b2565b5b6000808651805187602083010193508088870111156136185787860182525b60208701925050505b6020841061365f578051825260208261363a91906146b2565b915060208161364991906146b2565b90506020846136589190614967565b9350613621565b60006001856020036101000a03905080198251168184511681811785525050508692505050949350505050565b613699826002835161314d565b6136ac81836132d290919063ffffffff16565b505050565b6136b9613976565b836020015183106136df576136de84600286602001516136d99190614879565b6137b2565b5b83518051602085830101848153818614156136fb576001820183525b5050508390509392505050565b613710613976565b8460200151848361372191906146b2565b111561374957613748856002868561373991906146b2565b6137439190614879565b6137b2565b5b600060018361010061375b919061475b565b6137659190614967565b905085518386820101858319825116178152815185880111156137885784870182525b505085915050949350505050565b6000818311156137a8578290506137ac565b8190505b92915050565b6000826000015190506137c583836130e3565b506137d083826132d2565b50505050565b6040518061014001604052806000815260200160608152602001606081526020016137ff613990565b815260200161380c613990565b81526020016000600381111561384b577f4e487b7100000000000000000000000000000000000000000000000000000000600052602160045260246000fd5b8152602001600081526020016000815260200160008152602001600073ffffffffffffffffffffffffffffffffffffffff1681525090565b82805461388f90614aae565b90600052602060002090601f0160209004810192826138b157600085556138f8565b82601f106138ca57805160ff19168380011785556138f8565b828001600101855582156138f8579182015b828111156138f75782518255916020019190600101906138dc565b5b50905061390591906139c0565b5090565b6040518060a0016040528060008019168152602001600073ffffffffffffffffffffffffffffffffffffffff16815260200160007bffffffffffffffffffffffffffffffffffffffffffffffffffffffff1916815260200160008152602001613970613976565b81525090565b604051806040016040528060608152602001600081525090565b6040518060400160405280600073ffffffffffffffffffffffffffffffffffffffff168152602001600081525090565b5b808211156139d95760008160009055506001016139c1565b5090565b6000815190506139ec81614f04565b92915050565b600081359050613a0181614f1b565b92915050565b60008083601f840112613a1957600080fd5b8235905067ffffffffffffffff811115613a3257600080fd5b602083019150836001820283011115613a4a57600080fd5b9250929050565b600081359050613a6081614f32565b92915050565b600081519050613a7581614f32565b92915050565b600060208284031215613a8d57600080fd5b6000613a9b848285016139dd565b91505092915050565b60008060408385031215613ab757600080fd5b6000613ac5858286016139f2565b9250506020613ad685828601613a51565b9150509250929050565b600080600080600060608688031215613af857600080fd5b600086013567ffffffffffffffff811115613b1257600080fd5b613b1e88828901613a07565b9550955050602086013567ffffffffffffffff811115613b3d57600080fd5b613b4988828901613a07565b93509350506040613b5c88828901613a51565b9150509295509295909350565b600060208284031215613b7b57600080fd5b6000613b8984828501613a51565b91505092915050565b600060208284031215613ba457600080fd5b6000613bb284828501613a66565b91505092915050565b6000613bc78383613f56565b905092915050565b613bd88161499b565b82525050565b613be78161499b565b82525050565b6000613bf88261462a565b613c028185614658565b935083602082028501613c148561461a565b8060005b85811015613c505784840389528151613c318582613bbb565b9450613c3c8361464b565b925060208a01995050600181019050613c18565b50829750879550505050505092915050565b613c6b816149b9565b82525050565b613c82613c7d826149b9565b614b3b565b82525050565b613c91816149c3565b82525050565b6000613ca282614635565b613cac8185614669565b9350613cbc818560208601614a7b565b613cc581614ca9565b840191505092915050565b613ce1613cdc82614a36565b614b29565b82525050565b613cf081614a5a565b82525050565b613d07613d0282614a5a565b614b61565b82525050565b6000613d1983856146a7565b9350613d26838584614a6c565b82840190509392505050565b6000613d3d82614640565b613d478185614685565b9350613d57818560208601614a7b565b613d6081614ca9565b840191505092915050565b6000613d7682614640565b613d808185614696565b9350613d90818560208601614a7b565b613d9981614ca9565b840191505092915050565b6000613daf82614640565b613db981856146a7565b9350613dc9818560208601614a7b565b80840191505092915050565b6000613de2602383614696565b9150613ded82614ce1565b604082019050919050565b6000613e05601c83614696565b9150613e1082614d30565b602082019050919050565b6000613e28601583614696565b9150613e3382614d59565b602082019050919050565b6000613e4b601783614696565b9150613e5682614d82565b602082019050919050565b6000613e6e6032836146a7565b9150613e7982614dab565b603282019050919050565b6000613e91601283614696565b9150613e9c82614dfa565b602082019050919050565b6000613eb46006836146a7565b9150613ebf82614e23565b600682019050919050565b6000613ed760008361467a565b9150613ee282614e4c565b600082019050919050565b6000613efa6001836146a7565b9150613f0582614e4f565b600182019050919050565b6000613f1d602883614696565b9150613f2882614e78565b604082019050919050565b6000613f406007836146a7565b9150613f4b82614ec7565b600782019050919050565b600061018083016000830151613f6f6000860182614068565b5060208301518482036020860152613f878282613d32565b91505060408301518482036040860152613fa18282613d32565b9150506060830151613fb66060860182614039565b506080830151613fc960a0860182614039565b5060a0830151613fdc60e0860182613ce7565b5060c0830151613ff0610100860182614068565b5060e0830151614004610120860182614068565b50610100830151614019610140860182614068565b5061012083015161402e610160860182613bcf565b508091505092915050565b60408201600082015161404f6000850182613bcf565b5060208201516140626020850182614068565b50505050565b61407181614a2c565b82525050565b61408081614a2c565b82525050565b61409761409282614a2c565b614b57565b82525050565b60006140a98284613c71565b60208201915081905092915050565b60006140c48285613cd0565b6014820191506140d48284614086565b6020820191508190509392505050565b60006140f08284613cf6565b60018201915081905092915050565b600061410c828789613d0d565b9150614119828587613d0d565b91506141258284614086565b6020820191508190509695505050505050565b60006141448284613da4565b915081905092915050565b600061415b8285613da4565b915061416682613eed565b91506141728284613da4565b91508190509392505050565b600061418982613e61565b91506141958284613da4565b91506141a082613f33565b915081905092915050565b60006141b682613ea7565b91506141c28284613da4565b915081905092915050565b60006141d882613eca565b9150819050919050565b60006141ee8286614086565b6020820191506141fe8285614086565b60208201915061420e8284614086565b602082019150819050949350505050565b60006020820190506142346000830184613bde565b92915050565b600060808201905061424f6000830187613bde565b61425c6020830186613bde565b818103604083015261426e8185613d6b565b905081810360608301526142828184613d6b565b905095945050505050565b60006060820190506142a26000830186613bde565b81810360208301526142b48185613d6b565b905081810360408301526142c88184613d6b565b9050949350505050565b60006040820190506142e76000830185613bde565b6142f46020830184614077565b9392505050565b600061010082019050614311600083018b613bde565b61431e602083018a614077565b61432b6040830189613c62565b6143386060830188613bde565b6143456080830187613c88565b61435260a0830186614077565b61435f60c0830185614077565b81810360e08301526143718184613c97565b90509998505050505050505050565b60006060820190506143956000830186613bde565b6143a26020830185614077565b81810360408301526143b48184613c97565b9050949350505050565b600060208201905081810360008301526143d88184613bed565b905092915050565b600060208201905081810360008301526143fa8184613d6b565b905092915050565b6000604082019050818103600083015261441c8185613d6b565b905061442b6020830184613bde565b9392505050565b6000608082019050818103600083015261444c8187613d6b565b905061445b6020830186613bde565b818103604083015261446d8185613d6b565b905081810360608301526144818184613d6b565b905095945050505050565b600060408201905081810360008301526144a68185613d6b565b905081810360208301526144ba8184613d6b565b90509392505050565b600060608201905081810360008301526144dd8186613d6b565b90506144ec6020830185614077565b81810360408301526144fe8184613d6b565b9050949350505050565b6000602082019050818103600083015261452181613dd5565b9050919050565b6000602082019050818103600083015261454181613df8565b9050919050565b6000602082019050818103600083015261456181613e1b565b9050919050565b6000602082019050818103600083015261458181613e3e565b9050919050565b600060208201905081810360008301526145a181613e84565b9050919050565b600060208201905081810360008301526145c181613f10565b9050919050565b60006020820190506145dd6000830184614077565b92915050565b60006060820190506145f86000830186614077565b6146056020830185613bde565b6146126040830184613bde565b949350505050565b6000819050602082019050919050565b600081519050919050565b600081519050919050565b600081519050919050565b6000602082019050919050565b600082825260208201905092915050565b600082825260208201905092915050565b600081905092915050565b600082825260208201905092915050565b600082825260208201905092915050565b600081905092915050565b60006146bd82614a2c565b91506146c883614a2c565b9250827fffffffffffffffffffffffffffffffffffffffffffffffffffffffffffffffff038211156146fd576146fc614bed565b5b828201905092915050565b6000808291508390505b60018511156147525780860481111561472e5761472d614bed565b5b600185161561473d5780820291505b808102905061474b85614cd4565b9450614712565b94509492505050565b600061476682614a2c565b915061477183614a2c565b925061479e7fffffffffffffffffffffffffffffffffffffffffffffffffffffffffffffffff84846147a6565b905092915050565b6000826147b65760019050614872565b816147c45760009050614872565b81600181146147da57600281146147e457614813565b6001915050614872565b60ff8411156147f6576147f5614bed565b5b8360020a91508482111561480d5761480c614bed565b5b50614872565b5060208310610133831016604e8410600b84101617156148485782820a90508381111561484357614842614bed565b5b614872565b6148558484846001614708565b9250905081840481111561486c5761486b614bed565b5b81810290505b9392505050565b600061488482614a2c565b915061488f83614a2c565b9250817fffffffffffffffffffffffffffffffffffffffffffffffffffffffffffffffff04831182151516156148c8576148c7614bed565b5b828202905092915050565b60006148de82614a02565b91506148e983614a02565b9250827f80000000000000000000000000000000000000000000000000000000000000000182126000841215161561492457614923614bed565b5b827f7fffffffffffffffffffffffffffffffffffffffffffffffffffffffffffffff01821360008412161561495c5761495b614bed565b5b828203905092915050565b600061497282614a2c565b915061497d83614a2c565b9250828210156149905761498f614bed565b5b828203905092915050565b60006149a682614a0c565b9050919050565b60008115159050919050565b6000819050919050565b60007fffffffff0000000000000000000000000000000000000000000000000000000082169050919050565b60008190506149fd82614ef0565b919050565b6000819050919050565b600073ffffffffffffffffffffffffffffffffffffffff82169050919050565b6000819050919050565b6000614a4182614a48565b9050919050565b6000614a5382614a0c565b9050919050565b6000614a65826149ef565b9050919050565b82818337600083830152505050565b60005b83811015614a99578082015181840152602081019050614a7e565b83811115614aa8576000848401525b50505050565b60006002820490506001821680614ac657607f821691505b60208210811415614ada57614ad9614c7a565b5b50919050565b6000614aeb82614a2c565b91507fffffffffffffffffffffffffffffffffffffffffffffffffffffffffffffffff821415614b1e57614b1d614bed565b5b600182019050919050565b6000614b3482614b45565b9050919050565b6000819050919050565b6000614b5082614cc7565b9050919050565b6000819050919050565b6000614b6c82614cba565b9050919050565b6000614b7e82614a2c565b9150614b8983614a2c565b925082614b9957614b98614c1c565b5b828206905092915050565b6000614baf82614a02565b91507f8000000000000000000000000000000000000000000000000000000000000000821415614be257614be1614bed565b5b816000039050919050565b7f4e487b7100000000000000000000000000000000000000000000000000000000600052601160045260246000fd5b7f4e487b7100000000000000000000000000000000000000000000000000000000600052601260045260246000fd5b7f4e487b7100000000000000000000000000000000000000000000000000000000600052602160045260246000fd5b7f4e487b7100000000000000000000000000000000000000000000000000000000600052602260045260246000fd5b6000601f19601f8301169050919050565b60008160f81b9050919050565b60008160601b9050919050565b60008160011c9050919050565b7f756e61626c6520746f207472616e73666572416e6443616c6c20746f206f726160008201527f636c650000000000000000000000000000000000000000000000000000000000602082015250565b7f4d6178696d756d207573657273206578636565646564206572726f7200000000600082015250565b7f4661696c656420746f2073656e64204574686572210000000000000000000000600082015250565b7f5573657220616c726561647920706c6163656420626964000000000000000000600082015250565b7f68747470733a2f2f746573746e6574732d6170692e6f70656e7365612e696f2f60008201527f6170692f76312f636f6c6c656374696f6e2f0000000000000000000000000000602082015250565b7f556e61626c6520746f207472616e736665720000000000000000000000000000600082015250565b7f73746174732c0000000000000000000000000000000000000000000000000000600082015250565b50565b7f5f00000000000000000000000000000000000000000000000000000000000000600082015250565b7f536f75726365206d75737420626520746865206f7261636c65206f662074686560008201527f2072657175657374000000000000000000000000000000000000000000000000602082015250565b7f2f73746174732f00000000000000000000000000000000000000000000000000600082015250565b60048110614f0157614f00614c4b565b5b50565b614f0d816149ad565b8114614f1857600080fd5b50565b614f24816149b9565b8114614f2f57600080fd5b50565b614f3b81614a2c565b8114614f4657600080fd5b5056fea2646970667358221220b7022f6470732ea892b5424964af0e05f96940b148e303e672aeeab4fa739f9c64736f6c63430008010033",
  "linkReferences": {},
  "deployedLinkReferences": {}
}