{
  "_format": "hh-sol-artifact-1",
  "contractName": "NFTFuturesBetting",
  "sourceName": "contracts/NFT_Futures_Betting.sol",
  "abi": [
    {
      "inputs": [],
      "stateMutability": "payable",
      "type": "constructor"
    },
    {
      "anonymous": false,
      "inputs": [
        {
          "indexed": true,
          "internalType": "bytes32",
          "name": "id",
          "type": "bytes32"
        }
      ],
      "name": "ChainlinkCancelled",
      "type": "event"
    },
    {
      "anonymous": false,
      "inputs": [
        {
          "indexed": true,
          "internalType": "bytes32",
          "name": "id",
          "type": "bytes32"
        }
      ],
      "name": "ChainlinkFulfilled",
      "type": "event"
    },
    {
      "anonymous": false,
      "inputs": [
        {
          "indexed": true,
          "internalType": "bytes32",
          "name": "id",
          "type": "bytes32"
        }
      ],
      "name": "ChainlinkRequested",
      "type": "event"
    },
    {
      "anonymous": false,
      "inputs": [
        {
          "indexed": true,
          "internalType": "bytes32",
          "name": "requestId",
          "type": "bytes32"
        },
        {
          "indexed": false,
          "internalType": "uint256",
          "name": "volume",
          "type": "uint256"
        }
      ],
      "name": "RequestVolume",
      "type": "event"
    },
    {
      "inputs": [],
      "name": "deposit",
      "outputs": [],
      "stateMutability": "payable",
      "type": "function"
    },
    {
      "inputs": [
        {
          "internalType": "bytes32",
          "name": "_requestId",
          "type": "bytes32"
        },
        {
          "internalType": "uint256",
          "name": "propertyValue",
          "type": "uint256"
        }
      ],
      "name": "fulfill",
      "outputs": [],
      "stateMutability": "nonpayable",
      "type": "function"
    },
    {
      "inputs": [],
      "name": "getAllBets",
      "outputs": [
        {
          "components": [
            {
              "internalType": "uint256",
              "name": "betId",
              "type": "uint256"
            },
            {
              "internalType": "string",
              "name": "nftCollection",
              "type": "string"
            },
            {
              "internalType": "string",
              "name": "property",
              "type": "string"
            },
            {
              "components": [
                {
                  "internalType": "address",
                  "name": "user",
                  "type": "address"
                },
                {
                  "internalType": "uint256",
                  "name": "prediction",
                  "type": "uint256"
                }
              ],
              "internalType": "struct NFTFuturesBetting.Bid",
              "name": "userBid1",
              "type": "tuple"
            },
            {
              "components": [
                {
                  "internalType": "address",
                  "name": "user",
                  "type": "address"
                },
                {
                  "internalType": "uint256",
                  "name": "prediction",
                  "type": "uint256"
                }
              ],
              "internalType": "struct NFTFuturesBetting.Bid",
              "name": "userBid2",
              "type": "tuple"
            },
            {
              "internalType": "enum NFTFuturesBetting.BetStatus",
              "name": "status",
              "type": "uint8"
            },
            {
              "internalType": "uint256",
              "name": "startTime",
              "type": "uint256"
            },
            {
              "internalType": "uint256",
              "name": "endTime",
              "type": "uint256"
            },
            {
              "internalType": "uint256",
              "name": "closingPropertyValue",
              "type": "uint256"
            },
            {
              "internalType": "address",
              "name": "winner",
              "type": "address"
            }
          ],
          "internalType": "struct NFTFuturesBetting.Bet[]",
          "name": "betsValues",
          "type": "tuple[]"
        }
      ],
      "stateMutability": "view",
      "type": "function"
    },
    {
      "inputs": [],
      "name": "getAllBetsOfTheUser",
      "outputs": [
        {
          "components": [
            {
              "internalType": "uint256",
              "name": "betId",
              "type": "uint256"
            },
            {
              "internalType": "string",
              "name": "nftCollection",
              "type": "string"
            },
            {
              "internalType": "string",
              "name": "property",
              "type": "string"
            },
            {
              "components": [
                {
                  "internalType": "address",
                  "name": "user",
                  "type": "address"
                },
                {
                  "internalType": "uint256",
                  "name": "prediction",
                  "type": "uint256"
                }
              ],
              "internalType": "struct NFTFuturesBetting.Bid",
              "name": "userBid1",
              "type": "tuple"
            },
            {
              "components": [
                {
                  "internalType": "address",
                  "name": "user",
                  "type": "address"
                },
                {
                  "internalType": "uint256",
                  "name": "prediction",
                  "type": "uint256"
                }
              ],
              "internalType": "struct NFTFuturesBetting.Bid",
              "name": "userBid2",
              "type": "tuple"
            },
            {
              "internalType": "enum NFTFuturesBetting.BetStatus",
              "name": "status",
              "type": "uint8"
            },
            {
              "internalType": "uint256",
              "name": "startTime",
              "type": "uint256"
            },
            {
              "internalType": "uint256",
              "name": "endTime",
              "type": "uint256"
            },
            {
              "internalType": "uint256",
              "name": "closingPropertyValue",
              "type": "uint256"
            },
            {
              "internalType": "address",
              "name": "winner",
              "type": "address"
            }
          ],
          "internalType": "struct NFTFuturesBetting.Bet[]",
          "name": "",
          "type": "tuple[]"
        }
      ],
      "stateMutability": "view",
      "type": "function"
    },
    {
      "inputs": [
        {
          "internalType": "string",
          "name": "nftCollection",
          "type": "string"
        },
        {
          "internalType": "string",
          "name": "property",
          "type": "string"
        },
        {
          "internalType": "uint256",
          "name": "prediction",
          "type": "uint256"
        }
      ],
      "name": "placeABid",
      "outputs": [],
      "stateMutability": "payable",
      "type": "function"
    },
    {
      "inputs": [
        {
          "internalType": "uint256",
          "name": "index",
          "type": "uint256"
        }
      ],
      "name": "printABet",
      "outputs": [],
      "stateMutability": "view",
      "type": "function"
    },
    {
      "inputs": [],
      "name": "withdrawLink",
      "outputs": [],
      "stateMutability": "nonpayable",
      "type": "function"
    },
    {
      "stateMutability": "payable",
      "type": "receive"
    }
  ],
  "bytecode": "0x60806040526001600455662386f26fc100006009556200003973a36085f69e2889c224210f603d836748e7dc0088620000f760201b60201c565b6200005e7374ecc8bdeb76f2c6760ed2dc8a46ca5e581fa6566200013b60201b60201c565b7f6361393833363663633733313439353762386330313263373266303561656562600681905550600a670de0b6b3a764000060016200009e9190620001b7565b620000aa91906200017f565b60078190555033600a60006101000a81548173ffffffffffffffffffffffffffffffffffffffff021916908373ffffffffffffffffffffffffffffffffffffffff16021790555062000280565b80600260006101000a81548173ffffffffffffffffffffffffffffffffffffffff021916908373ffffffffffffffffffffffffffffffffffffffff16021790555050565b80600360006101000a81548173ffffffffffffffffffffffffffffffffffffffff021916908373ffffffffffffffffffffffffffffffffffffffff16021790555050565b60006200018c8262000218565b9150620001998362000218565b925082620001ac57620001ab62000251565b5b828204905092915050565b6000620001c48262000218565b9150620001d18362000218565b9250817fffffffffffffffffffffffffffffffffffffffffffffffffffffffffffffffff04831182151516156200020d576200020c62000222565b5b828202905092915050565b6000819050919050565b7f4e487b7100000000000000000000000000000000000000000000000000000000600052601160045260246000fd5b7f4e487b7100000000000000000000000000000000000000000000000000000000600052601260045260246000fd5b61527380620002906000396000f3fe6080604052600436106100735760003560e01c806372b2d89f1161004e57806372b2d89f146100fc5780638dc654a214610118578063a02079f41461012f578063d0e30db01461015a5761007a565b80624d00091461007f5780634357855e146100a8578063700eae73146100d15761007a565b3661007a57005b600080fd5b34801561008b57600080fd5b506100a660048036038101906100a19190613dcb565b610164565b005b3480156100b457600080fd5b506100cf60048036038101906100ca9190613d06565b610517565b005b3480156100dd57600080fd5b506100e6610d93565b6040516100f39190614643565b60405180910390f35b61011660048036038101906101119190613d42565b6111fa565b005b34801561012457600080fd5b5061012d61155c565b005b34801561013b57600080fd5b506101446116bf565b6040516101519190614643565b60405180910390f35b610162611b25565b005b6000600b6000600c84815481106101a4577f4e487b7100000000000000000000000000000000000000000000000000000000600052603260045260246000fd5b9060005260206000200154815260200190815260200160002060405180610140016040529081600082015481526020016001820180546101e390614d53565b80601f016020809104026020016040519081016040528092919081815260200182805461020f90614d53565b801561025c5780601f106102315761010080835404028352916020019161025c565b820191906000526020600020905b81548152906001019060200180831161023f57829003601f168201915b5050505050815260200160028201805461027590614d53565b80601f01602080910402602001604051908101604052809291908181526020018280546102a190614d53565b80156102ee5780601f106102c3576101008083540402835291602001916102ee565b820191906000526020600020905b8154815290600101906020018083116102d157829003601f168201915b50505050508152602001600382016040518060400160405290816000820160009054906101000a900473ffffffffffffffffffffffffffffffffffffffff1673ffffffffffffffffffffffffffffffffffffffff1673ffffffffffffffffffffffffffffffffffffffff1681526020016001820154815250508152602001600582016040518060400160405290816000820160009054906101000a900473ffffffffffffffffffffffffffffffffffffffff1673ffffffffffffffffffffffffffffffffffffffff1673ffffffffffffffffffffffffffffffffffffffff16815260200160018201548152505081526020016007820160009054906101000a900460ff16600381111561042a577f4e487b7100000000000000000000000000000000000000000000000000000000600052602160045260246000fd5b6003811115610462577f4e487b7100000000000000000000000000000000000000000000000000000000600052602160045260246000fd5b81526020016008820154815260200160098201548152602001600a8201548152602001600b820160009054906101000a900473ffffffffffffffffffffffffffffffffffffffff1673ffffffffffffffffffffffffffffffffffffffff1673ffffffffffffffffffffffffffffffffffffffff168152505090506104f88160000151826101200151836060015160000151611b27565b61051381608001516000015182602001518360400151611bc6565b5050565b816005600082815260200190815260200160002060009054906101000a900473ffffffffffffffffffffffffffffffffffffffff1673ffffffffffffffffffffffffffffffffffffffff163373ffffffffffffffffffffffffffffffffffffffff16146105b9576040517f08c379a00000000000000000000000000000000000000000000000000000000081526004016105b09061484d565b60405180910390fd5b6005600082815260200190815260200160002060006101000a81549073ffffffffffffffffffffffffffffffffffffffff0219169055807f7cc135e0cebb02c3480ae5d74d377283180a2601f8f644edf7987b009316c63a60405160405180910390a261065a6040518060400160405280600a81526020017f496e2046756c66696c6c00000000000000000000000000000000000000000000815250611c65565b6000600e60008581526020019081526020016000205490506000600b600083815260200190815260200160002060405180610140016040529081600082015481526020016001820180546106ad90614d53565b80601f01602080910402602001604051908101604052809291908181526020018280546106d990614d53565b80156107265780601f106106fb57610100808354040283529160200191610726565b820191906000526020600020905b81548152906001019060200180831161070957829003601f168201915b5050505050815260200160028201805461073f90614d53565b80601f016020809104026020016040519081016040528092919081815260200182805461076b90614d53565b80156107b85780601f1061078d576101008083540402835291602001916107b8565b820191906000526020600020905b81548152906001019060200180831161079b57829003601f168201915b50505050508152602001600382016040518060400160405290816000820160009054906101000a900473ffffffffffffffffffffffffffffffffffffffff1673ffffffffffffffffffffffffffffffffffffffff1673ffffffffffffffffffffffffffffffffffffffff1681526020016001820154815250508152602001600582016040518060400160405290816000820160009054906101000a900473ffffffffffffffffffffffffffffffffffffffff1673ffffffffffffffffffffffffffffffffffffffff1673ffffffffffffffffffffffffffffffffffffffff16815260200160018201548152505081526020016007820160009054906101000a900460ff1660038111156108f4577f4e487b7100000000000000000000000000000000000000000000000000000000600052602160045260246000fd5b600381111561092c577f4e487b7100000000000000000000000000000000000000000000000000000000600052602160045260246000fd5b81526020016008820154815260200160098201548152602001600a8201548152602001600b820160009054906101000a900473ffffffffffffffffffffffffffffffffffffffff1673ffffffffffffffffffffffffffffffffffffffff1673ffffffffffffffffffffffffffffffffffffffff1681525050905083816101000181815250506000816060015160200151905060008260800151602001519050610a2d6040518060400160405280601281526020017f42657449442c2050726564696374696f6e730000000000000000000000000000815250858484604051602001610a1993929190614467565b604051602081830303815290604052611cfe565b610a418682610a3c9190614c0c565b611d9a565b610a558784610a509190614c0c565b611d9a565b13610ade5782606001516000015183610120019073ffffffffffffffffffffffffffffffffffffffff16908173ffffffffffffffffffffffffffffffffffffffff1681525050610ad96040518060400160405280601481526020017f557365722031206973207468652077696e6e6572000000000000000000000000815250611c65565b610b5e565b82608001516000015183610120019073ffffffffffffffffffffffffffffffffffffffff16908173ffffffffffffffffffffffffffffffffffffffff1681525050610b5d6040518060400160405280601481526020017f557365722032206973207468652077696e6e6572000000000000000000000000815250611c65565b5b600083610120015173ffffffffffffffffffffffffffffffffffffffff166009546002610b8b9190614b1e565b604051610b9790614452565b60006040518083038185875af1925050503d8060008114610bd4576040519150601f19603f3d011682016040523d82523d6000602084013e610bd9565b606091505b50509050610c216040518060400160405280601481526020017f53656e74206d6f6e657920746f2077696e6e6572000000000000000000000000815250856101200151611dbc565b8015610ca95760028460a001906003811115610c66577f4e487b7100000000000000000000000000000000000000000000000000000000600052602160045260246000fd5b90816003811115610ca0577f4e487b7100000000000000000000000000000000000000000000000000000000600052602160045260246000fd5b81525050610d27565b60038460a001906003811115610ce8577f4e487b7100000000000000000000000000000000000000000000000000000000600052602160045260246000fd5b90816003811115610d22577f4e487b7100000000000000000000000000000000000000000000000000000000600052602160045260246000fd5b815250505b610d896040518060400160405280600a81526020017f42657420737461747573000000000000000000000000000000000000000000008152508560a00151604051602001610d759190614369565b604051602081830303815290604052611cfe565b5050505050505050565b60606000600c80549050905060008167ffffffffffffffff811115610de1577f4e487b7100000000000000000000000000000000000000000000000000000000600052604160045260246000fd5b604051908082528060200260200182016040528015610e1a57816020015b610e07613a38565b815260200190600190039081610dff5790505b50905060005b828110156111f157600b6000600c8381548110610e66577f4e487b7100000000000000000000000000000000000000000000000000000000600052603260045260246000fd5b906000526020600020015481526020019081526020016000206040518061014001604052908160008201548152602001600182018054610ea590614d53565b80601f0160208091040260200160405190810160405280929190818152602001828054610ed190614d53565b8015610f1e5780601f10610ef357610100808354040283529160200191610f1e565b820191906000526020600020905b815481529060010190602001808311610f0157829003601f168201915b50505050508152602001600282018054610f3790614d53565b80601f0160208091040260200160405190810160405280929190818152602001828054610f6390614d53565b8015610fb05780601f10610f8557610100808354040283529160200191610fb0565b820191906000526020600020905b815481529060010190602001808311610f9357829003601f168201915b50505050508152602001600382016040518060400160405290816000820160009054906101000a900473ffffffffffffffffffffffffffffffffffffffff1673ffffffffffffffffffffffffffffffffffffffff1673ffffffffffffffffffffffffffffffffffffffff1681526020016001820154815250508152602001600582016040518060400160405290816000820160009054906101000a900473ffffffffffffffffffffffffffffffffffffffff1673ffffffffffffffffffffffffffffffffffffffff1673ffffffffffffffffffffffffffffffffffffffff16815260200160018201548152505081526020016007820160009054906101000a900460ff1660038111156110ec577f4e487b7100000000000000000000000000000000000000000000000000000000600052602160045260246000fd5b6003811115611124577f4e487b7100000000000000000000000000000000000000000000000000000000600052602160045260246000fd5b81526020016008820154815260200160098201548152602001600a8201548152602001600b820160009054906101000a900473ffffffffffffffffffffffffffffffffffffffff1673ffffffffffffffffffffffffffffffffffffffff1673ffffffffffffffffffffffffffffffffffffffff16815250508282815181106111d5577f4e487b7100000000000000000000000000000000000000000000000000000000600052603260045260246000fd5b6020026020010181905250806111ea90614d85565b9050610e20565b50809250505090565b600060405180604001604052803373ffffffffffffffffffffffffffffffffffffffff16815260200183815250905060006112be87878080601f016020809104026020016040519081016040528093929190818152602001838380828437600081840152601f19601f8201169050808301925050505050505086868080601f016020809104026020016040519081016040528093929190818152602001838380828437600081840152601f19601f8201169050808301925050505050505084611e58565b90506112e48160600151600001518260800151600001518360200151846040015161272e565b60003073ffffffffffffffffffffffffffffffffffffffff163460405161130a90614452565b60006040518083038185875af1925050503d8060008114611347576040519150601f19603f3d011682016040523d82523d6000602084013e61134c565b606091505b5050905080611390576040517f08c379a0000000000000000000000000000000000000000000000000000000008152600401611387906147ed565b60405180910390fd5b600073ffffffffffffffffffffffffffffffffffffffff1682608001516000015173ffffffffffffffffffffffffffffffffffffffff16146114b55760018260a00190600381111561140b577f4e487b7100000000000000000000000000000000000000000000000000000000600052602160045260246000fd5b90816003811115611445577f4e487b7100000000000000000000000000000000000000000000000000000000600052602160045260246000fd5b815250506114876040518060400160405280600f81526020017f52756e6e696e6720746865206265740000000000000000000000000000000000815250611c65565b6114ab8260600151600001518360800151600001518460200151856040015161272e565b6114b4826127d0565b5b6115526040518060400160405280601b81526020017f506c61636520612062696420737461727420666f7220757365723a0000000000815250336040518060400160405280600181526020017f2c000000000000000000000000000000000000000000000000000000000000008152508b8b8b8b8b60405160200161153e959493929190614384565b6040516020818303038152906040526128a7565b5050505050505050565b6000611566612949565b90508073ffffffffffffffffffffffffffffffffffffffff1663a9059cbb338373ffffffffffffffffffffffffffffffffffffffff166370a08231306040518263ffffffff1660e01b81526004016115be91906144a4565b60206040518083038186803b1580156115d657600080fd5b505afa1580156115ea573d6000803e3d6000fd5b505050506040513d601f19601f8201168201806040525081019061160e9190613df4565b6040518363ffffffff1660e01b815260040161162b929190614557565b602060405180830381600087803b15801561164557600080fd5b505af1158015611659573d6000803e3d6000fd5b505050506040513d601f19601f8201168201806040525081019061167d9190613cdd565b6116bc576040517f08c379a00000000000000000000000000000000000000000000000000000000081526004016116b39061482d565b60405180910390fd5b50565b60608060005b600c80549050811015611b1d576000600b6000600c8481548110611712577f4e487b7100000000000000000000000000000000000000000000000000000000600052603260045260246000fd5b90600052602060002001548152602001908152602001600020604051806101400160405290816000820154815260200160018201805461175190614d53565b80601f016020809104026020016040519081016040528092919081815260200182805461177d90614d53565b80156117ca5780601f1061179f576101008083540402835291602001916117ca565b820191906000526020600020905b8154815290600101906020018083116117ad57829003601f168201915b505050505081526020016002820180546117e390614d53565b80601f016020809104026020016040519081016040528092919081815260200182805461180f90614d53565b801561185c5780601f106118315761010080835404028352916020019161185c565b820191906000526020600020905b81548152906001019060200180831161183f57829003601f168201915b50505050508152602001600382016040518060400160405290816000820160009054906101000a900473ffffffffffffffffffffffffffffffffffffffff1673ffffffffffffffffffffffffffffffffffffffff1673ffffffffffffffffffffffffffffffffffffffff1681526020016001820154815250508152602001600582016040518060400160405290816000820160009054906101000a900473ffffffffffffffffffffffffffffffffffffffff1673ffffffffffffffffffffffffffffffffffffffff1673ffffffffffffffffffffffffffffffffffffffff16815260200160018201548152505081526020016007820160009054906101000a900460ff166003811115611998577f4e487b7100000000000000000000000000000000000000000000000000000000600052602160045260246000fd5b60038111156119d0577f4e487b7100000000000000000000000000000000000000000000000000000000600052602160045260246000fd5b81526020016008820154815260200160098201548152602001600a8201548152602001600b820160009054906101000a900473ffffffffffffffffffffffffffffffffffffffff1673ffffffffffffffffffffffffffffffffffffffff1673ffffffffffffffffffffffffffffffffffffffff168152505090503373ffffffffffffffffffffffffffffffffffffffff1681606001516000015173ffffffffffffffffffffffffffffffffffffffff161480611abf57503373ffffffffffffffffffffffffffffffffffffffff1681608001516000015173ffffffffffffffffffffffffffffffffffffffff16145b15611b0b578083845181518110611aff577f4e487b7100000000000000000000000000000000000000000000000000000000600052603260045260246000fd5b60200260200101819052505b5080611b1690614d85565b90506116c5565b508091505090565b565b611bc1838383604051602401611b3f93929190614888565b6040516020818303038152906040527f7d77a61b000000000000000000000000000000000000000000000000000000007bffffffffffffffffffffffffffffffffffffffffffffffffffffffff19166020820180517bffffffffffffffffffffffffffffffffffffffffffffffffffffffff8381831617835250505050612973565b505050565b611c60838383604051602401611bde93929190614512565b6040516020818303038152906040527ffb772265000000000000000000000000000000000000000000000000000000007bffffffffffffffffffffffffffffffffffffffffffffffffffffffff19166020820180517bffffffffffffffffffffffffffffffffffffffffffffffffffffffff8381831617835250505050612973565b505050565b611cfb81604051602401611c799190614665565b6040516020818303038152906040527f41304fac000000000000000000000000000000000000000000000000000000007bffffffffffffffffffffffffffffffffffffffffffffffffffffffff19166020820180517bffffffffffffffffffffffffffffffffffffffffffffffffffffffff8381831617835250505050612973565b50565b611d968282604051602401611d14929190614711565b6040516020818303038152906040527f4b5c4277000000000000000000000000000000000000000000000000000000007bffffffffffffffffffffffffffffffffffffffffffffffffffffffff19166020820180517bffffffffffffffffffffffffffffffffffffffffffffffffffffffff8381831617835250505050612973565b5050565b600080821215611db35781611dae90614e49565b611db5565b815b9050919050565b611e548282604051602401611dd2929190614687565b6040516020818303038152906040527f319af333000000000000000000000000000000000000000000000000000000007bffffffffffffffffffffffffffffffffffffffffffffffffffffffff19166020820180517bffffffffffffffffffffffffffffffffffffffffffffffffffffffff8381831617835250505050612973565b5050565b611e60613a38565b600954341015611ea5576040517f08c379a0000000000000000000000000000000000000000000000000000000008152600401611e9c9061478d565b60405180910390fd5b6000600d611eb3868661299c565b604051611ec091906143bd565b9081526020016040518091039020805480602002602001604051908101604052809291908181526020018280548015611f1857602002820191906000526020600020905b815481526020019060010190808311611f04575b50505050509050600081511415611f3c57611f348585856129c8565b915050612727565b6000600b60008360018551611f519190614c0c565b81518110611f88577f4e487b7100000000000000000000000000000000000000000000000000000000600052603260045260246000fd5b602002602001015181526020019081526020016000206040518061014001604052908160008201548152602001600182018054611fc490614d53565b80601f0160208091040260200160405190810160405280929190818152602001828054611ff090614d53565b801561203d5780601f106120125761010080835404028352916020019161203d565b820191906000526020600020905b81548152906001019060200180831161202057829003601f168201915b5050505050815260200160028201805461205690614d53565b80601f016020809104026020016040519081016040528092919081815260200182805461208290614d53565b80156120cf5780601f106120a4576101008083540402835291602001916120cf565b820191906000526020600020905b8154815290600101906020018083116120b257829003601f168201915b50505050508152602001600382016040518060400160405290816000820160009054906101000a900473ffffffffffffffffffffffffffffffffffffffff1673ffffffffffffffffffffffffffffffffffffffff1673ffffffffffffffffffffffffffffffffffffffff1681526020016001820154815250508152602001600582016040518060400160405290816000820160009054906101000a900473ffffffffffffffffffffffffffffffffffffffff1673ffffffffffffffffffffffffffffffffffffffff1673ffffffffffffffffffffffffffffffffffffffff16815260200160018201548152505081526020016007820160009054906101000a900460ff16600381111561220b577f4e487b7100000000000000000000000000000000000000000000000000000000600052602160045260246000fd5b6003811115612243577f4e487b7100000000000000000000000000000000000000000000000000000000600052602160045260246000fd5b81526020016008820154815260200160098201548152602001600a8201548152602001600b820160009054906101000a900473ffffffffffffffffffffffffffffffffffffffff1673ffffffffffffffffffffffffffffffffffffffff1673ffffffffffffffffffffffffffffffffffffffff16815250509050600260038111156122f7577f4e487b7100000000000000000000000000000000000000000000000000000000600052602160045260246000fd5b8160a001516003811115612334577f4e487b7100000000000000000000000000000000000000000000000000000000600052602160045260246000fd5b141561234e576123458686866129c8565b92505050612727565b60006003811115612388577f4e487b7100000000000000000000000000000000000000000000000000000000600052602160045260246000fd5b8160a0015160038111156123c5577f4e487b7100000000000000000000000000000000000000000000000000000000600052602160045260246000fd5b1415612669573373ffffffffffffffffffffffffffffffffffffffff1681606001516000015173ffffffffffffffffffffffffffffffffffffffff161415612442576040517f08c379a00000000000000000000000000000000000000000000000000000000081526004016124399061480d565b60405180910390fd5b83816080018190525080600b6000846001865161245f9190614c0c565b81518110612496577f4e487b7100000000000000000000000000000000000000000000000000000000600052603260045260246000fd5b602002602001015181526020019081526020016000206000820151816000015560208201518160010190805190602001906124d2929190613ae5565b5060408201518160020190805190602001906124ef929190613ae5565b5060608201518160030160008201518160000160006101000a81548173ffffffffffffffffffffffffffffffffffffffff021916908373ffffffffffffffffffffffffffffffffffffffff16021790555060208201518160010155505060808201518160050160008201518160000160006101000a81548173ffffffffffffffffffffffffffffffffffffffff021916908373ffffffffffffffffffffffffffffffffffffffff16021790555060208201518160010155505060a08201518160070160006101000a81548160ff021916908360038111156125f9577f4e487b7100000000000000000000000000000000000000000000000000000000600052602160045260246000fd5b021790555060c0820151816008015560e0820151816009015561010082015181600a015561012082015181600b0160006101000a81548173ffffffffffffffffffffffffffffffffffffffff021916908373ffffffffffffffffffffffffffffffffffffffff1602179055509050505b600160038111156126a3577f4e487b7100000000000000000000000000000000000000000000000000000000600052602160045260246000fd5b8160a0015160038111156126e0577f4e487b7100000000000000000000000000000000000000000000000000000000600052602160045260246000fd5b1415612721576040517f08c379a0000000000000000000000000000000000000000000000000000000008152600401612718906147cd565b60405180910390fd5b80925050505b9392505050565b6127ca8484848460405160240161274894939291906144bf565b6040516020818303038152906040527f21bdaf25000000000000000000000000000000000000000000000000000000007bffffffffffffffffffffffffffffffffffffffffffffffffffffffff19166020820180517bffffffffffffffffffffffffffffffffffffffffffffffffffffffff8381831617835250505050612973565b50505050565b61280e6040518060400160405280600a81526020017f496e2072756e2062657400000000000000000000000000000000000000000000815250611c65565b600061282282602001518360400151612cfb565b90506128876040518060400160405280601181526020017f526571756573742049442c2062657449640000000000000000000000000000008152508360000151836040516020016128739190614322565b604051602081830303815290604052612f8a565b8160000151600e6000838152602001908152602001600020819055505050565b612943848484846040516024016128c194939291906146b7565b6040516020818303038152906040527f245986f2000000000000000000000000000000000000000000000000000000007bffffffffffffffffffffffffffffffffffffffffffffffffffffffff19166020820180517bffffffffffffffffffffffffffffffffffffffffffffffffffffffff8381831617835250505050612973565b50505050565b6000600260009054906101000a900473ffffffffffffffffffffffffffffffffffffffff16905090565b60008151905060006a636f6e736f6c652e6c6f679050602083016000808483855afa5050505050565b606082826040516020016129b19291906143d4565b604051602081830303815290604052905092915050565b6129d0613a38565b6000604051806101400160405280600c8054905081526020018681526020018581526020018481526020016040518060400160405280600073ffffffffffffffffffffffffffffffffffffffff1681526020016000815250815260200160006003811115612a67577f4e487b7100000000000000000000000000000000000000000000000000000000600052602160045260246000fd5b81526020014281526020016000815260200160008152602001600073ffffffffffffffffffffffffffffffffffffffff16815250905080600b600083600001518152602001908152602001600020600082015181600001556020820151816001019080519060200190612adb929190613ae5565b506040820151816002019080519060200190612af8929190613ae5565b5060608201518160030160008201518160000160006101000a81548173ffffffffffffffffffffffffffffffffffffffff021916908373ffffffffffffffffffffffffffffffffffffffff16021790555060208201518160010155505060808201518160050160008201518160000160006101000a81548173ffffffffffffffffffffffffffffffffffffffff021916908373ffffffffffffffffffffffffffffffffffffffff16021790555060208201518160010155505060a08201518160070160006101000a81548160ff02191690836003811115612c02577f4e487b7100000000000000000000000000000000000000000000000000000000600052602160045260246000fd5b021790555060c0820151816008015560e0820151816009015561010082015181600a015561012082015181600b0160006101000a81548173ffffffffffffffffffffffffffffffffffffffff021916908373ffffffffffffffffffffffffffffffffffffffff160217905550905050600c81600001519080600181540180825580915050600190039060005260206000200160009091909190915055600d612caa868661299c565b604051612cb791906143bd565b908152602001604051809103902081600001519080600181540180825580915050600190039060005260206000200160009091909190915055809150509392505050565b6000612d3b6040518060400160405280601e81526020017f496e207265717565737420636f6c6c656374696f6e2070726f70657274790000815250611c65565b6000612d5160065430634357855e60e01b613029565b9050612d916040518060400160405280601281526020017f52657175657374696e67206f70656e7365610000000000000000000000000000815250611c65565b612dfa6040518060400160405280600381526020017f676574000000000000000000000000000000000000000000000000000000000081525085604051602001612ddb9190614425565b6040516020818303038152906040528361305a9092919063ffffffff16565b612e386040518060400160405280600d81526020017f4164646564207265717565737400000000000000000000000000000000000000815250611c65565b612ea16040518060400160405280600481526020017f706174680000000000000000000000000000000000000000000000000000000081525084604051602001612e829190614403565b6040516020818303038152906040528361305a9092919063ffffffff16565b612edf6040518060400160405280600a81526020017f4164646564207061746800000000000000000000000000000000000000000000815250611c65565b6000670de0b6b3a76400009050612f366040518060400160405280600581526020017f74696d6573000000000000000000000000000000000000000000000000000000815250828461308d9092919063ffffffff16565b612f746040518060400160405280601481526020017f636f6e7665727465642074686520616d6f756e74000000000000000000000000815250611c65565b612f80826007546130c0565b9250505092915050565b613024838383604051602401612fa293929190614748565b6040516020818303038152906040527fa3f5c739000000000000000000000000000000000000000000000000000000007bffffffffffffffffffffffffffffffffffffffffffffffffffffffff19166020820180517bffffffffffffffffffffffffffffffffffffffffffffffffffffffff8381831617835250505050612973565b505050565b613031613b6b565b613039613b6b565b613050858585846130f7909392919063ffffffff16565b9150509392505050565b6130718284608001516131a790919063ffffffff16565b6130888184608001516131a790919063ffffffff16565b505050565b6130a48284608001516131a790919063ffffffff16565b6130bb8184608001516131cc90919063ffffffff16565b505050565b60006130ef600360009054906101000a900473ffffffffffffffffffffffffffffffffffffffff168484613279565b905092915050565b6130ff613b6b565b61310f8560800151610100613345565b508385600001818152505082856020019073ffffffffffffffffffffffffffffffffffffffff16908173ffffffffffffffffffffffffffffffffffffffff16815250508185604001907bffffffffffffffffffffffffffffffffffffffffffffffffffffffff191690817bffffffffffffffffffffffffffffffffffffffffffffffffffffffff191681525050849050949350505050565b6131b482600383516133af565b6131c7818361353490919063ffffffff16565b505050565b7fffffffffffffffffffffffffffffffffffffffffffffffff0000000000000000811215613203576131fe8282613556565b613275565b67ffffffffffffffff8113156132225761321d82826135cd565b613274565b6000811261323b57613236826000836133af565b613273565b613272826001837fffffffffffffffffffffffffffffffffffffffffffffffffffffffffffffffff61326d9190614b78565b6133af565b5b5b5b5050565b600080600454905060018161328e9190614957565b6004819055506000634042994660e01b60008087600001513089604001518760018c60800151600001516040516024016132cf989796959493929190614580565b604051602081830303815290604052907bffffffffffffffffffffffffffffffffffffffffffffffffffffffff19166020820180517bffffffffffffffffffffffffffffffffffffffffffffffffffffffff8381831617835250505050905061333a86838684613619565b925050509392505050565b61334d613bd8565b600060208361335c9190614e18565b146133885760208261336e9190614e18565b602061337a9190614c0c565b826133859190614957565b91505b81836020018181525050604051808452600081528281016020016040525082905092915050565b60178167ffffffffffffffff16116133e6576133e08160058460ff16901b60ff1617846137bd90919063ffffffff16565b5061352f565b60ff8167ffffffffffffffff161161343c57613415601860058460ff16901b17846137bd90919063ffffffff16565b506134368167ffffffffffffffff166001856137dd9092919063ffffffff16565b5061352e565b61ffff8167ffffffffffffffff16116134935761346c601960058460ff16901b17846137bd90919063ffffffff16565b5061348d8167ffffffffffffffff166002856137dd9092919063ffffffff16565b5061352d565b63ffffffff8167ffffffffffffffff16116134ec576134c5601a60058460ff16901b17846137bd90919063ffffffff16565b506134e68167ffffffffffffffff166004856137dd9092919063ffffffff16565b5061352c565b613509601b60058460ff16901b17846137bd90919063ffffffff16565b5061352a8167ffffffffffffffff166008856137dd9092919063ffffffff16565b505b5b5b5b505050565b61353c613bd8565b61354e838460000151518485516137ff565b905092915050565b61357460036005600660ff16901b17836137bd90919063ffffffff16565b506135c982827fffffffffffffffffffffffffffffffffffffffffffffffffffffffffffffffff6135a59190614b78565b6040516020016135b5919061486d565b6040516020818303038152906040526138ee565b5050565b6135eb60026005600660ff16901b17836137bd90919063ffffffff16565b506136158282604051602001613601919061486d565b6040516020818303038152906040526138ee565b5050565b6000308460405160200161362e92919061433d565b604051602081830303815290604052805190602001209050846005600083815260200190815260200160002060006101000a81548173ffffffffffffffffffffffffffffffffffffffff021916908373ffffffffffffffffffffffffffffffffffffffff160217905550807fb5e6e01e79f91267dc17b4e6314d5d4d03593d2ceee0fbb452b750bd70ea5af960405160405180910390a2600260009054906101000a900473ffffffffffffffffffffffffffffffffffffffff1673ffffffffffffffffffffffffffffffffffffffff16634000aea08685856040518463ffffffff1660e01b815260040161372493929190614605565b602060405180830381600087803b15801561373e57600080fd5b505af1158015613752573d6000803e3d6000fd5b505050506040513d601f19601f820116820180604052508101906137769190613cdd565b6137b5576040517f08c379a00000000000000000000000000000000000000000000000000000000081526004016137ac906147ad565b60405180910390fd5b949350505050565b6137c5613bd8565b6137d58384600001515184613913565b905092915050565b6137e5613bd8565b6137f684856000015151858561396a565b90509392505050565b613807613bd8565b825182111561381557600080fd5b846020015182856138269190614957565b111561385b5761385a85600261384b886020015188876138469190614957565b6139f8565b6138559190614b1e565b613a14565b5b60008086518051876020830101935080888701111561387a5787860182525b60208701925050505b602084106138c1578051825260208261389c9190614957565b91506020816138ab9190614957565b90506020846138ba9190614c0c565b9350613883565b60006001856020036101000a03905080198251168184511681811785525050508692505050949350505050565b6138fb82600283516133af565b61390e818361353490919063ffffffff16565b505050565b61391b613bd8565b8360200151831061394157613940846002866020015161393b9190614b1e565b613a14565b5b835180516020858301018481538186141561395d576001820183525b5050508390509392505050565b613972613bd8565b846020015184836139839190614957565b11156139ab576139aa856002868561399b9190614957565b6139a59190614b1e565b613a14565b5b60006001836101006139bd9190614a00565b6139c79190614c0c565b905085518386820101858319825116178152815185880111156139ea5784870182525b505085915050949350505050565b600081831115613a0a57829050613a0e565b8190505b92915050565b600082600001519050613a278383613345565b50613a328382613534565b50505050565b604051806101400160405280600081526020016060815260200160608152602001613a61613bf2565b8152602001613a6e613bf2565b815260200160006003811115613aad577f4e487b7100000000000000000000000000000000000000000000000000000000600052602160045260246000fd5b8152602001600081526020016000815260200160008152602001600073ffffffffffffffffffffffffffffffffffffffff1681525090565b828054613af190614d53565b90600052602060002090601f016020900481019282613b135760008555613b5a565b82601f10613b2c57805160ff1916838001178555613b5a565b82800160010185558215613b5a579182015b82811115613b59578251825591602001919060010190613b3e565b5b509050613b679190613c22565b5090565b6040518060a0016040528060008019168152602001600073ffffffffffffffffffffffffffffffffffffffff16815260200160007bffffffffffffffffffffffffffffffffffffffffffffffffffffffff1916815260200160008152602001613bd2613bd8565b81525090565b604051806040016040528060608152602001600081525090565b6040518060400160405280600073ffffffffffffffffffffffffffffffffffffffff168152602001600081525090565b5b80821115613c3b576000816000905550600101613c23565b5090565b600081519050613c4e816151f8565b92915050565b600081359050613c638161520f565b92915050565b60008083601f840112613c7b57600080fd5b8235905067ffffffffffffffff811115613c9457600080fd5b602083019150836001820283011115613cac57600080fd5b9250929050565b600081359050613cc281615226565b92915050565b600081519050613cd781615226565b92915050565b600060208284031215613cef57600080fd5b6000613cfd84828501613c3f565b91505092915050565b60008060408385031215613d1957600080fd5b6000613d2785828601613c54565b9250506020613d3885828601613cb3565b9150509250929050565b600080600080600060608688031215613d5a57600080fd5b600086013567ffffffffffffffff811115613d7457600080fd5b613d8088828901613c69565b9550955050602086013567ffffffffffffffff811115613d9f57600080fd5b613dab88828901613c69565b93509350506040613dbe88828901613cb3565b9150509295509295909350565b600060208284031215613ddd57600080fd5b6000613deb84828501613cb3565b91505092915050565b600060208284031215613e0657600080fd5b6000613e1484828501613cc8565b91505092915050565b6000613e2983836141db565b905092915050565b613e3a81614c40565b82525050565b613e4981614c40565b82525050565b6000613e5a826148cf565b613e6481856148fd565b935083602082028501613e76856148bf565b8060005b85811015613eb25784840389528151613e938582613e1d565b9450613e9e836148f0565b925060208a01995050600181019050613e7a565b50829750879550505050505092915050565b613ecd81614c5e565b82525050565b613ee4613edf82614c5e565b614de0565b82525050565b613ef381614c68565b82525050565b6000613f04826148da565b613f0e818561490e565b9350613f1e818560208601614d20565b613f2781614f4e565b840191505092915050565b613f43613f3e82614cdb565b614dce565b82525050565b613f5281614cff565b82525050565b613f69613f6482614cff565b614e06565b82525050565b6000613f7b838561494c565b9350613f88838584614d11565b82840190509392505050565b6000613f9f826148e5565b613fa9818561492a565b9350613fb9818560208601614d20565b613fc281614f4e565b840191505092915050565b6000613fd8826148e5565b613fe2818561493b565b9350613ff2818560208601614d20565b613ffb81614f4e565b840191505092915050565b6000614011826148e5565b61401b818561494c565b935061402b818560208601614d20565b80840191505092915050565b600061404460248361493b565b915061404f82614f86565b604082019050919050565b600061406760238361493b565b915061407282614fd5565b604082019050919050565b600061408a60058361494c565b915061409582615024565b600582019050919050565b60006140ad601c8361493b565b91506140b88261504d565b602082019050919050565b60006140d060158361493b565b91506140db82615076565b602082019050919050565b60006140f360178361493b565b91506140fe8261509f565b602082019050919050565b600061411660328361494c565b9150614121826150c8565b603282019050919050565b600061413960128361493b565b915061414482615117565b602082019050919050565b600061415c60008361491f565b915061416782615140565b600082019050919050565b600061417f60018361494c565b915061418a82615143565b600182019050919050565b60006141a260288361493b565b91506141ad8261516c565b604082019050919050565b60006141c560078361494c565b91506141d0826151bb565b600782019050919050565b6000610180830160008301516141f460008601826142ed565b506020830151848203602086015261420c8282613f94565b915050604083015184820360408601526142268282613f94565b915050606083015161423b60608601826142be565b50608083015161424e60a08601826142be565b5060a083015161426160e0860182613f49565b5060c08301516142756101008601826142ed565b5060e08301516142896101208601826142ed565b5061010083015161429e6101408601826142ed565b506101208301516142b3610160860182613e31565b508091505092915050565b6040820160008201516142d46000850182613e31565b5060208201516142e760208501826142ed565b50505050565b6142f681614cd1565b82525050565b61430581614cd1565b82525050565b61431c61431782614cd1565b614dfc565b82525050565b600061432e8284613ed3565b60208201915081905092915050565b60006143498285613f32565b601482019150614359828461430b565b6020820191508190509392505050565b60006143758284613f58565b60018201915081905092915050565b6000614391828789613f6f565b915061439e828587613f6f565b91506143aa828461430b565b6020820191508190509695505050505050565b60006143c98284614006565b915081905092915050565b60006143e08285614006565b91506143eb82614172565b91506143f78284614006565b91508190509392505050565b600061440e8261407d565b915061441a8284614006565b915081905092915050565b600061443082614109565b915061443c8284614006565b9150614447826141b8565b915081905092915050565b600061445d8261414f565b9150819050919050565b6000614473828661430b565b602082019150614483828561430b565b602082019150614493828461430b565b602082019150819050949350505050565b60006020820190506144b96000830184613e40565b92915050565b60006080820190506144d46000830187613e40565b6144e16020830186613e40565b81810360408301526144f38185613fcd565b905081810360608301526145078184613fcd565b905095945050505050565b60006060820190506145276000830186613e40565b81810360208301526145398185613fcd565b9050818103604083015261454d8184613fcd565b9050949350505050565b600060408201905061456c6000830185613e40565b61457960208301846142fc565b9392505050565b600061010082019050614596600083018b613e40565b6145a3602083018a6142fc565b6145b06040830189613ec4565b6145bd6060830188613e40565b6145ca6080830187613eea565b6145d760a08301866142fc565b6145e460c08301856142fc565b81810360e08301526145f68184613ef9565b90509998505050505050505050565b600060608201905061461a6000830186613e40565b61462760208301856142fc565b81810360408301526146398184613ef9565b9050949350505050565b6000602082019050818103600083015261465d8184613e4f565b905092915050565b6000602082019050818103600083015261467f8184613fcd565b905092915050565b600060408201905081810360008301526146a18185613fcd565b90506146b06020830184613e40565b9392505050565b600060808201905081810360008301526146d18187613fcd565b90506146e06020830186613e40565b81810360408301526146f28185613fcd565b905081810360608301526147068184613fcd565b905095945050505050565b6000604082019050818103600083015261472b8185613fcd565b9050818103602083015261473f8184613fcd565b90509392505050565b600060608201905081810360008301526147628186613fcd565b905061477160208301856142fc565b81810360408301526147838184613fcd565b9050949350505050565b600060208201905081810360008301526147a681614037565b9050919050565b600060208201905081810360008301526147c68161405a565b9050919050565b600060208201905081810360008301526147e6816140a0565b9050919050565b60006020820190508181036000830152614806816140c3565b9050919050565b60006020820190508181036000830152614826816140e6565b9050919050565b600060208201905081810360008301526148468161412c565b9050919050565b6000602082019050818103600083015261486681614195565b9050919050565b600060208201905061488260008301846142fc565b92915050565b600060608201905061489d60008301866142fc565b6148aa6020830185613e40565b6148b76040830184613e40565b949350505050565b6000819050602082019050919050565b600081519050919050565b600081519050919050565b600081519050919050565b6000602082019050919050565b600082825260208201905092915050565b600082825260208201905092915050565b600081905092915050565b600082825260208201905092915050565b600082825260208201905092915050565b600081905092915050565b600061496282614cd1565b915061496d83614cd1565b9250827fffffffffffffffffffffffffffffffffffffffffffffffffffffffffffffffff038211156149a2576149a1614e92565b5b828201905092915050565b6000808291508390505b60018511156149f7578086048111156149d3576149d2614e92565b5b60018516156149e25780820291505b80810290506149f085614f79565b94506149b7565b94509492505050565b6000614a0b82614cd1565b9150614a1683614cd1565b9250614a437fffffffffffffffffffffffffffffffffffffffffffffffffffffffffffffffff8484614a4b565b905092915050565b600082614a5b5760019050614b17565b81614a695760009050614b17565b8160018114614a7f5760028114614a8957614ab8565b6001915050614b17565b60ff841115614a9b57614a9a614e92565b5b8360020a915084821115614ab257614ab1614e92565b5b50614b17565b5060208310610133831016604e8410600b8410161715614aed5782820a905083811115614ae857614ae7614e92565b5b614b17565b614afa84848460016149ad565b92509050818404811115614b1157614b10614e92565b5b81810290505b9392505050565b6000614b2982614cd1565b9150614b3483614cd1565b9250817fffffffffffffffffffffffffffffffffffffffffffffffffffffffffffffffff0483118215151615614b6d57614b6c614e92565b5b828202905092915050565b6000614b8382614ca7565b9150614b8e83614ca7565b9250827f800000000000000000000000000000000000000000000000000000000000000001821260008412151615614bc957614bc8614e92565b5b827f7fffffffffffffffffffffffffffffffffffffffffffffffffffffffffffffff018213600084121615614c0157614c00614e92565b5b828203905092915050565b6000614c1782614cd1565b9150614c2283614cd1565b925082821015614c3557614c34614e92565b5b828203905092915050565b6000614c4b82614cb1565b9050919050565b60008115159050919050565b6000819050919050565b60007fffffffff0000000000000000000000000000000000000000000000000000000082169050919050565b6000819050614ca2826151e4565b919050565b6000819050919050565b600073ffffffffffffffffffffffffffffffffffffffff82169050919050565b6000819050919050565b6000614ce682614ced565b9050919050565b6000614cf882614cb1565b9050919050565b6000614d0a82614c94565b9050919050565b82818337600083830152505050565b60005b83811015614d3e578082015181840152602081019050614d23565b83811115614d4d576000848401525b50505050565b60006002820490506001821680614d6b57607f821691505b60208210811415614d7f57614d7e614f1f565b5b50919050565b6000614d9082614cd1565b91507fffffffffffffffffffffffffffffffffffffffffffffffffffffffffffffffff821415614dc357614dc2614e92565b5b600182019050919050565b6000614dd982614dea565b9050919050565b6000819050919050565b6000614df582614f6c565b9050919050565b6000819050919050565b6000614e1182614f5f565b9050919050565b6000614e2382614cd1565b9150614e2e83614cd1565b925082614e3e57614e3d614ec1565b5b828206905092915050565b6000614e5482614ca7565b91507f8000000000000000000000000000000000000000000000000000000000000000821415614e8757614e86614e92565b5b816000039050919050565b7f4e487b7100000000000000000000000000000000000000000000000000000000600052601160045260246000fd5b7f4e487b7100000000000000000000000000000000000000000000000000000000600052601260045260246000fd5b7f4e487b7100000000000000000000000000000000000000000000000000000000600052602160045260246000fd5b7f4e487b7100000000000000000000000000000000000000000000000000000000600052602260045260246000fd5b6000601f19601f8301169050919050565b60008160f81b9050919050565b60008160601b9050919050565b60008160011c9050919050565b7f4e6f742073756666696369656e742045544820696e20796f75722077616c6c6560008201527f74203a2800000000000000000000000000000000000000000000000000000000602082015250565b7f756e61626c6520746f207472616e73666572416e6443616c6c20746f206f726160008201527f636c650000000000000000000000000000000000000000000000000000000000602082015250565b7f7374617473000000000000000000000000000000000000000000000000000000600082015250565b7f4d6178696d756d207573657273206578636565646564206572726f7200000000600082015250565b7f4661696c656420746f2073656e64204574686572210000000000000000000000600082015250565b7f5573657220616c726561647920706c6163656420626964000000000000000000600082015250565b7f68747470733a2f2f746573746e6574732d6170692e6f70656e7365612e696f2f60008201527f6170692f76312f636f6c6c656374696f6e2f0000000000000000000000000000602082015250565b7f556e61626c6520746f207472616e736665720000000000000000000000000000600082015250565b50565b7f5f00000000000000000000000000000000000000000000000000000000000000600082015250565b7f536f75726365206d75737420626520746865206f7261636c65206f662074686560008201527f2072657175657374000000000000000000000000000000000000000000000000602082015250565b7f2f73746174732f00000000000000000000000000000000000000000000000000600082015250565b600481106151f5576151f4614ef0565b5b50565b61520181614c52565b811461520c57600080fd5b50565b61521881614c5e565b811461522357600080fd5b50565b61522f81614cd1565b811461523a57600080fd5b5056fea2646970667358221220ea314cd00e34663977e6266ecf669fea3d580b65637b43880825ebcc29fe7c7e64736f6c63430008010033",
  "linkReferences": {},
  "deployedLinkReferences": {}
}