{
  "_format": "hh-sol-artifact-1",
  "contractName": "NFTFuturesBetting",
  "sourceName": "contracts/NFT_Futures_Betting.sol",
  "abi": [
    {
      "inputs": [],
      "stateMutability": "payable",
      "type": "constructor"
    },
    {
      "anonymous": false,
      "inputs": [
        {
          "indexed": true,
          "internalType": "bytes32",
          "name": "id",
          "type": "bytes32"
        }
      ],
      "name": "ChainlinkCancelled",
      "type": "event"
    },
    {
      "anonymous": false,
      "inputs": [
        {
          "indexed": true,
          "internalType": "bytes32",
          "name": "id",
          "type": "bytes32"
        }
      ],
      "name": "ChainlinkFulfilled",
      "type": "event"
    },
    {
      "anonymous": false,
      "inputs": [
        {
          "indexed": true,
          "internalType": "bytes32",
          "name": "id",
          "type": "bytes32"
        }
      ],
      "name": "ChainlinkRequested",
      "type": "event"
    },
    {
      "anonymous": false,
      "inputs": [
        {
          "indexed": true,
          "internalType": "bytes32",
          "name": "requestId",
          "type": "bytes32"
        },
        {
          "indexed": false,
          "internalType": "uint256",
          "name": "volume",
          "type": "uint256"
        }
      ],
      "name": "RequestVolume",
      "type": "event"
    },
    {
      "inputs": [
        {
          "components": [
            {
              "internalType": "uint256",
              "name": "betId",
              "type": "uint256"
            },
            {
              "internalType": "string",
              "name": "nftCollection",
              "type": "string"
            },
            {
              "internalType": "string",
              "name": "property",
              "type": "string"
            },
            {
              "components": [
                {
                  "internalType": "address",
                  "name": "user",
                  "type": "address"
                },
                {
                  "internalType": "uint256",
                  "name": "prediction",
                  "type": "uint256"
                }
              ],
              "internalType": "struct NFTFuturesBetting.Bid",
              "name": "userBid1",
              "type": "tuple"
            },
            {
              "components": [
                {
                  "internalType": "address",
                  "name": "user",
                  "type": "address"
                },
                {
                  "internalType": "uint256",
                  "name": "prediction",
                  "type": "uint256"
                }
              ],
              "internalType": "struct NFTFuturesBetting.Bid",
              "name": "userBid2",
              "type": "tuple"
            },
            {
              "internalType": "enum NFTFuturesBetting.BetStatus",
              "name": "status",
              "type": "uint8"
            },
            {
              "internalType": "uint256",
              "name": "startTime",
              "type": "uint256"
            },
            {
              "internalType": "uint256",
              "name": "endTime",
              "type": "uint256"
            },
            {
              "internalType": "uint256",
              "name": "closingPropertyValue",
              "type": "uint256"
            },
            {
              "internalType": "address",
              "name": "winner",
              "type": "address"
            }
          ],
          "internalType": "struct NFTFuturesBetting.Bet",
          "name": "bet",
          "type": "tuple"
        }
      ],
      "name": "_runBet",
      "outputs": [],
      "stateMutability": "payable",
      "type": "function"
    },
    {
      "inputs": [],
      "name": "_runBetOnlyForTesting",
      "outputs": [],
      "stateMutability": "payable",
      "type": "function"
    },
    {
      "inputs": [],
      "name": "deposit",
      "outputs": [],
      "stateMutability": "payable",
      "type": "function"
    },
    {
      "inputs": [
        {
          "internalType": "bytes32",
          "name": "_requestId",
          "type": "bytes32"
        },
        {
          "internalType": "uint256",
          "name": "propertyValue",
          "type": "uint256"
        }
      ],
      "name": "fulfill",
      "outputs": [],
      "stateMutability": "nonpayable",
      "type": "function"
    },
    {
      "inputs": [],
      "name": "getAllBets",
      "outputs": [
        {
          "components": [
            {
              "internalType": "uint256",
              "name": "betId",
              "type": "uint256"
            },
            {
              "internalType": "string",
              "name": "nftCollection",
              "type": "string"
            },
            {
              "internalType": "string",
              "name": "property",
              "type": "string"
            },
            {
              "components": [
                {
                  "internalType": "address",
                  "name": "user",
                  "type": "address"
                },
                {
                  "internalType": "uint256",
                  "name": "prediction",
                  "type": "uint256"
                }
              ],
              "internalType": "struct NFTFuturesBetting.Bid",
              "name": "userBid1",
              "type": "tuple"
            },
            {
              "components": [
                {
                  "internalType": "address",
                  "name": "user",
                  "type": "address"
                },
                {
                  "internalType": "uint256",
                  "name": "prediction",
                  "type": "uint256"
                }
              ],
              "internalType": "struct NFTFuturesBetting.Bid",
              "name": "userBid2",
              "type": "tuple"
            },
            {
              "internalType": "enum NFTFuturesBetting.BetStatus",
              "name": "status",
              "type": "uint8"
            },
            {
              "internalType": "uint256",
              "name": "startTime",
              "type": "uint256"
            },
            {
              "internalType": "uint256",
              "name": "endTime",
              "type": "uint256"
            },
            {
              "internalType": "uint256",
              "name": "closingPropertyValue",
              "type": "uint256"
            },
            {
              "internalType": "address",
              "name": "winner",
              "type": "address"
            }
          ],
          "internalType": "struct NFTFuturesBetting.Bet[]",
          "name": "betsValues",
          "type": "tuple[]"
        }
      ],
      "stateMutability": "view",
      "type": "function"
    },
    {
      "inputs": [],
      "name": "getAllBetsOfTheUser",
      "outputs": [
        {
          "components": [
            {
              "internalType": "uint256",
              "name": "betId",
              "type": "uint256"
            },
            {
              "internalType": "string",
              "name": "nftCollection",
              "type": "string"
            },
            {
              "internalType": "string",
              "name": "property",
              "type": "string"
            },
            {
              "components": [
                {
                  "internalType": "address",
                  "name": "user",
                  "type": "address"
                },
                {
                  "internalType": "uint256",
                  "name": "prediction",
                  "type": "uint256"
                }
              ],
              "internalType": "struct NFTFuturesBetting.Bid",
              "name": "userBid1",
              "type": "tuple"
            },
            {
              "components": [
                {
                  "internalType": "address",
                  "name": "user",
                  "type": "address"
                },
                {
                  "internalType": "uint256",
                  "name": "prediction",
                  "type": "uint256"
                }
              ],
              "internalType": "struct NFTFuturesBetting.Bid",
              "name": "userBid2",
              "type": "tuple"
            },
            {
              "internalType": "enum NFTFuturesBetting.BetStatus",
              "name": "status",
              "type": "uint8"
            },
            {
              "internalType": "uint256",
              "name": "startTime",
              "type": "uint256"
            },
            {
              "internalType": "uint256",
              "name": "endTime",
              "type": "uint256"
            },
            {
              "internalType": "uint256",
              "name": "closingPropertyValue",
              "type": "uint256"
            },
            {
              "internalType": "address",
              "name": "winner",
              "type": "address"
            }
          ],
          "internalType": "struct NFTFuturesBetting.Bet[]",
          "name": "",
          "type": "tuple[]"
        }
      ],
      "stateMutability": "view",
      "type": "function"
    },
    {
      "inputs": [],
      "name": "getWinner",
      "outputs": [],
      "stateMutability": "payable",
      "type": "function"
    },
    {
      "inputs": [
        {
          "internalType": "string",
          "name": "",
          "type": "string"
        },
        {
          "internalType": "uint256",
          "name": "",
          "type": "uint256"
        }
      ],
      "name": "nftToBets",
      "outputs": [
        {
          "internalType": "uint256",
          "name": "",
          "type": "uint256"
        }
      ],
      "stateMutability": "view",
      "type": "function"
    },
    {
      "inputs": [
        {
          "internalType": "string",
          "name": "nftcollection",
          "type": "string"
        }
      ],
      "name": "noOfUsersInABet",
      "outputs": [
        {
          "internalType": "uint256",
          "name": "",
          "type": "uint256"
        }
      ],
      "stateMutability": "view",
      "type": "function"
    },
    {
      "inputs": [],
      "name": "onGoingBets",
      "outputs": [
        {
          "components": [
            {
              "internalType": "uint256",
              "name": "betId",
              "type": "uint256"
            },
            {
              "internalType": "string",
              "name": "nftCollection",
              "type": "string"
            },
            {
              "internalType": "string",
              "name": "property",
              "type": "string"
            },
            {
              "components": [
                {
                  "internalType": "address",
                  "name": "user",
                  "type": "address"
                },
                {
                  "internalType": "uint256",
                  "name": "prediction",
                  "type": "uint256"
                }
              ],
              "internalType": "struct NFTFuturesBetting.Bid",
              "name": "userBid1",
              "type": "tuple"
            },
            {
              "components": [
                {
                  "internalType": "address",
                  "name": "user",
                  "type": "address"
                },
                {
                  "internalType": "uint256",
                  "name": "prediction",
                  "type": "uint256"
                }
              ],
              "internalType": "struct NFTFuturesBetting.Bid",
              "name": "userBid2",
              "type": "tuple"
            },
            {
              "internalType": "enum NFTFuturesBetting.BetStatus",
              "name": "status",
              "type": "uint8"
            },
            {
              "internalType": "uint256",
              "name": "startTime",
              "type": "uint256"
            },
            {
              "internalType": "uint256",
              "name": "endTime",
              "type": "uint256"
            },
            {
              "internalType": "uint256",
              "name": "closingPropertyValue",
              "type": "uint256"
            },
            {
              "internalType": "address",
              "name": "winner",
              "type": "address"
            }
          ],
          "internalType": "struct NFTFuturesBetting.Bet[]",
          "name": "",
          "type": "tuple[]"
        }
      ],
      "stateMutability": "view",
      "type": "function"
    },
    {
      "inputs": [
        {
          "internalType": "string",
          "name": "nftCollection",
          "type": "string"
        },
        {
          "internalType": "string",
          "name": "property",
          "type": "string"
        },
        {
          "internalType": "uint256",
          "name": "prediction",
          "type": "uint256"
        }
      ],
      "name": "placeABid",
      "outputs": [],
      "stateMutability": "payable",
      "type": "function"
    },
    {
      "inputs": [
        {
          "internalType": "uint256",
          "name": "index",
          "type": "uint256"
        }
      ],
      "name": "printABet",
      "outputs": [],
      "stateMutability": "view",
      "type": "function"
    },
    {
      "inputs": [
        {
          "internalType": "uint256",
          "name": "",
          "type": "uint256"
        }
      ],
      "name": "result",
      "outputs": [
        {
          "internalType": "string",
          "name": "",
          "type": "string"
        }
      ],
      "stateMutability": "view",
      "type": "function"
    },
    {
      "inputs": [],
      "name": "withdrawLink",
      "outputs": [],
      "stateMutability": "nonpayable",
      "type": "function"
    },
    {
      "stateMutability": "payable",
      "type": "receive"
    }
  ],
  "bytecode": "0x60806040526001600455662386f26fc10000600a556200003973a36085f69e2889c224210f603d836748e7dc0088620000f760201b60201c565b6200005e7374ecc8bdeb76f2c6760ed2dc8a46ca5e581fa6566200013b60201b60201c565b7f6361393833363663633733313439353762386330313263373266303561656562600781905550600a670de0b6b3a764000060016200009e9190620001b7565b620000aa91906200017f565b60088190555033600b60006101000a81548173ffffffffffffffffffffffffffffffffffffffff021916908373ffffffffffffffffffffffffffffffffffffffff16021790555062000280565b80600260006101000a81548173ffffffffffffffffffffffffffffffffffffffff021916908373ffffffffffffffffffffffffffffffffffffffff16021790555050565b80600360006101000a81548173ffffffffffffffffffffffffffffffffffffffff021916908373ffffffffffffffffffffffffffffffffffffffff16021790555050565b60006200018c8262000218565b9150620001998362000218565b925082620001ac57620001ab62000251565b5b828204905092915050565b6000620001c48262000218565b9150620001d18362000218565b9250817fffffffffffffffffffffffffffffffffffffffffffffffffffffffffffffffff04831182151516156200020d576200020c62000222565b5b828202905092915050565b6000819050919050565b7f4e487b7100000000000000000000000000000000000000000000000000000000600052601160045260246000fd5b7f4e487b7100000000000000000000000000000000000000000000000000000000600052601260045260246000fd5b61617d80620002906000396000f3fe6080604052600436106100e05760003560e01c8063735f4cca1161007f578063a02079f411610059578063a02079f414610267578063cfb1ecc714610292578063d0e30db01461029c578063fa51db55146102a6576100e7565b8063735f4cca1461021b5780638dc654a2146102465780638e7ea5b21461025d576100e7565b80633c594059116100bb5780633c5940591461016e5780634357855e146101ab578063700eae73146101d457806372b2d89f146101ff576100e7565b80624d0009146100ec5780630a7f3f75146101155780630ce42a8814610152576100e7565b366100e757005b600080fd5b3480156100f857600080fd5b50610113600480360381019061010e9190614c9a565b6102e3565b005b34801561012157600080fd5b5061013c60048036038101906101379190614b37565b610696565b6040516101499190615712565b60405180910390f35b61016c60048036038101906101679190614c59565b6106c4565b005b34801561017a57600080fd5b5061019560048036038101906101909190614c9a565b61079b565b6040516101a2919061552a565b60405180910390f35b3480156101b757600080fd5b506101d260048036038101906101cd9190614afb565b610847565b005b3480156101e057600080fd5b506101e9611041565b6040516101f69190615508565b60405180910390f35b61021960048036038101906102149190614b7c565b6114a8565b005b34801561022757600080fd5b5061023061180a565b60405161023d9190615508565b60405180910390f35b34801561025257600080fd5b5061025b611d07565b005b610265611e6a565b005b34801561027357600080fd5b5061027c61220f565b6040516102899190615508565b60405180910390f35b61029a612709565b005b6102a4612713565b005b3480156102b257600080fd5b506102cd60048036038101906102c89190614c05565b612715565b6040516102da9190615712565b60405180910390f35b6000600c6000600d8481548110610323577f4e487b7100000000000000000000000000000000000000000000000000000000600052603260045260246000fd5b90600052602060002001548152602001908152602001600020604051806101400160405290816000820154815260200160018201805461036290615c4e565b80601f016020809104026020016040519081016040528092919081815260200182805461038e90615c4e565b80156103db5780601f106103b0576101008083540402835291602001916103db565b820191906000526020600020905b8154815290600101906020018083116103be57829003601f168201915b505050505081526020016002820180546103f490615c4e565b80601f016020809104026020016040519081016040528092919081815260200182805461042090615c4e565b801561046d5780601f106104425761010080835404028352916020019161046d565b820191906000526020600020905b81548152906001019060200180831161045057829003601f168201915b50505050508152602001600382016040518060400160405290816000820160009054906101000a900473ffffffffffffffffffffffffffffffffffffffff1673ffffffffffffffffffffffffffffffffffffffff1673ffffffffffffffffffffffffffffffffffffffff1681526020016001820154815250508152602001600582016040518060400160405290816000820160009054906101000a900473ffffffffffffffffffffffffffffffffffffffff1673ffffffffffffffffffffffffffffffffffffffff1673ffffffffffffffffffffffffffffffffffffffff16815260200160018201548152505081526020016007820160009054906101000a900460ff1660038111156105a9577f4e487b7100000000000000000000000000000000000000000000000000000000600052602160045260246000fd5b60038111156105e1577f4e487b7100000000000000000000000000000000000000000000000000000000600052602160045260246000fd5b81526020016008820154815260200160098201548152602001600a8201548152602001600b820160009054906101000a900473ffffffffffffffffffffffffffffffffffffffff1673ffffffffffffffffffffffffffffffffffffffff1673ffffffffffffffffffffffffffffffffffffffff16815250509050610677816000015182610120015183606001516000015161275c565b610692816080015160000151826020015183604001516127fb565b5050565b6000600e83836040516106aa92919061520d565b908152602001604051809103902080549050905092915050565b6107026040518060400160405280600a81526020017f496e2072756e206265740000000000000000000000000000000000000000000081525061289a565b600061071682602001518360400151612933565b905061077b6040518060400160405280601181526020017f526571756573742049442c20626574496400000000000000000000000000000081525083600001518360405160200161076791906151ab565b604051602081830303815290604052612bfa565b8160000151600f6000838152602001908152602001600020819055505050565b600681815481106107ab57600080fd5b9060005260206000200160009150905080546107c690615c4e565b80601f01602080910402602001604051908101604052809291908181526020018280546107f290615c4e565b801561083f5780601f106108145761010080835404028352916020019161083f565b820191906000526020600020905b81548152906001019060200180831161082257829003601f168201915b505050505081565b816005600082815260200190815260200160002060009054906101000a900473ffffffffffffffffffffffffffffffffffffffff1673ffffffffffffffffffffffffffffffffffffffff163373ffffffffffffffffffffffffffffffffffffffff16146108e9576040517f08c379a00000000000000000000000000000000000000000000000000000000081526004016108e0906156f2565b60405180910390fd5b6005600082815260200190815260200160002060006101000a81549073ffffffffffffffffffffffffffffffffffffffff0219169055807f7cc135e0cebb02c3480ae5d74d377283180a2601f8f644edf7987b009316c63a60405160405180910390a26000600f60008581526020019081526020016000205490506000600c600083815260200190815260200160002090508381600a01819055506000816003016001015490506000826005016001015490506109fe6040518060400160405280601281526020017f42657449442c2050726564696374696f6e7300000000000000000000000000008152508584846040516020016109ea939291906152e7565b604051602081830303815290604052612c99565b600680600181540180825580915050600190039060005260206000200160006040518060400160405280600f81526020017f6465636964696e672077696e6e6572000000000000000000000000000000000081525090919091509080519060200190610a6b92919061462b565b50610a808682610a7b9190615a73565b612d35565b610a948784610a8f9190615a73565b612d35565b13610bb4578260030160000160009054906101000a900473ffffffffffffffffffffffffffffffffffffffff1683600b0160006101000a81548173ffffffffffffffffffffffffffffffffffffffff021916908373ffffffffffffffffffffffffffffffffffffffff160217905550600680600181540180825580915050600190039060005260206000200160006040518060400160405280601381526020017f7573657231206973207468652077696e6e65720000000000000000000000000081525090919091509080519060200190610b7092919061462b565b50610baf6040518060400160405280601481526020017f557365722031206973207468652077696e6e657200000000000000000000000081525061289a565b610ccb565b8260050160000160009054906101000a900473ffffffffffffffffffffffffffffffffffffffff1683600b0160006101000a81548173ffffffffffffffffffffffffffffffffffffffff021916908373ffffffffffffffffffffffffffffffffffffffff160217905550600680600181540180825580915050600190039060005260206000200160006040518060400160405280601381526020017f7573657232206973207468652077696e6e65720000000000000000000000000081525090919091509080519060200190610c8b92919061462b565b50610cca6040518060400160405280601481526020017f557365722032206973207468652077696e6e657200000000000000000000000081525061289a565b5b600680600181540180825580915050600190039060005260206000200160006040518060400160405280601781526020017f73656e64696e67206d6f6e657920746f2077696e6e657200000000000000000081525090919091509080519060200190610d3892919061462b565b50600083600b0160009054906101000a900473ffffffffffffffffffffffffffffffffffffffff1673ffffffffffffffffffffffffffffffffffffffff16600a546002610d859190615a19565b604051610d91906152d2565b60006040518083038185875af1925050503d8060008114610dce576040519150601f19603f3d011682016040523d82523d6000602084013e610dd3565b606091505b50509050610e3a6040518060400160405280601481526020017f53656e74206d6f6e657920746f2077696e6e657200000000000000000000000081525085600b0160009054906101000a900473ffffffffffffffffffffffffffffffffffffffff16612d57565b600680600181540180825580915050600190039060005260206000200160006040518060400160405280601481526020017f73656e74206d6f6e657920746f2077696e6e657200000000000000000000000081525090919091509080519060200190610ea792919061462b565b508015610f065760028460070160006101000a81548160ff02191690836003811115610efc577f4e487b7100000000000000000000000000000000000000000000000000000000600052602160045260246000fd5b0217905550610f5a565b60038460070160006101000a81548160ff02191690836003811115610f54577f4e487b7100000000000000000000000000000000000000000000000000000000600052602160045260246000fd5b02179055505b610fc96040518060400160405280600a81526020017f42657420737461747573000000000000000000000000000000000000000000008152508560070160009054906101000a900460ff16604051602001610fb591906151f2565b604051602081830303815290604052612c99565b600680600181540180825580915050600190039060005260206000200160006040518060400160405280600b81526020017f66756c66696c6c20656e640000000000000000000000000000000000000000008152509091909150908051906020019061103692919061462b565b505050505050505050565b60606000600d80549050905060008167ffffffffffffffff81111561108f577f4e487b7100000000000000000000000000000000000000000000000000000000600052604160045260246000fd5b6040519080825280602002602001820160405280156110c857816020015b6110b56146b1565b8152602001906001900390816110ad5790505b50905060005b8281101561149f57600c6000600d8381548110611114577f4e487b7100000000000000000000000000000000000000000000000000000000600052603260045260246000fd5b90600052602060002001548152602001908152602001600020604051806101400160405290816000820154815260200160018201805461115390615c4e565b80601f016020809104026020016040519081016040528092919081815260200182805461117f90615c4e565b80156111cc5780601f106111a1576101008083540402835291602001916111cc565b820191906000526020600020905b8154815290600101906020018083116111af57829003601f168201915b505050505081526020016002820180546111e590615c4e565b80601f016020809104026020016040519081016040528092919081815260200182805461121190615c4e565b801561125e5780601f106112335761010080835404028352916020019161125e565b820191906000526020600020905b81548152906001019060200180831161124157829003601f168201915b50505050508152602001600382016040518060400160405290816000820160009054906101000a900473ffffffffffffffffffffffffffffffffffffffff1673ffffffffffffffffffffffffffffffffffffffff1673ffffffffffffffffffffffffffffffffffffffff1681526020016001820154815250508152602001600582016040518060400160405290816000820160009054906101000a900473ffffffffffffffffffffffffffffffffffffffff1673ffffffffffffffffffffffffffffffffffffffff1673ffffffffffffffffffffffffffffffffffffffff16815260200160018201548152505081526020016007820160009054906101000a900460ff16600381111561139a577f4e487b7100000000000000000000000000000000000000000000000000000000600052602160045260246000fd5b60038111156113d2577f4e487b7100000000000000000000000000000000000000000000000000000000600052602160045260246000fd5b81526020016008820154815260200160098201548152602001600a8201548152602001600b820160009054906101000a900473ffffffffffffffffffffffffffffffffffffffff1673ffffffffffffffffffffffffffffffffffffffff1673ffffffffffffffffffffffffffffffffffffffff1681525050828281518110611483577f4e487b7100000000000000000000000000000000000000000000000000000000600052603260045260246000fd5b60200260200101819052508061149890615cb1565b90506110ce565b50809250505090565b600060405180604001604052803373ffffffffffffffffffffffffffffffffffffffff168152602001838152509050600061156c87878080601f016020809104026020016040519081016040528093929190818152602001838380828437600081840152601f19601f8201169050808301925050505050505086868080601f016020809104026020016040519081016040528093929190818152602001838380828437600081840152601f19601f8201169050808301925050505050505084612df3565b905061159281606001516000015182608001516000015183602001518460400151613684565b60003073ffffffffffffffffffffffffffffffffffffffff16346040516115b8906152d2565b60006040518083038185875af1925050503d80600081146115f5576040519150601f19603f3d011682016040523d82523d6000602084013e6115fa565b606091505b505090508061163e576040517f08c379a000000000000000000000000000000000000000000000000000000000815260040161163590615692565b60405180910390fd5b600073ffffffffffffffffffffffffffffffffffffffff1682608001516000015173ffffffffffffffffffffffffffffffffffffffff16146117635760018260a0019060038111156116b9577f4e487b7100000000000000000000000000000000000000000000000000000000600052602160045260246000fd5b908160038111156116f3577f4e487b7100000000000000000000000000000000000000000000000000000000600052602160045260246000fd5b815250506117356040518060400160405280600f81526020017f52756e6e696e672074686520626574000000000000000000000000000000000081525061289a565b61175982606001516000015183608001516000015184602001518560400151613684565b611762826106c4565b5b6118006040518060400160405280601b81526020017f506c61636520612062696420737461727420666f7220757365723a0000000000815250336040518060400160405280600181526020017f2c000000000000000000000000000000000000000000000000000000000000008152508b8b8b8b8b6040516020016117ec959493929190615226565b604051602081830303815290604052613726565b5050505050505050565b60606000600d80549050905060008167ffffffffffffffff811115611858577f4e487b7100000000000000000000000000000000000000000000000000000000600052604160045260246000fd5b60405190808252806020026020018201604052801561189157816020015b61187e6146b1565b8152602001906001900390816118765790505b509050600080600090505b83811015611cfd576000600c6000600d84815481106118e4577f4e487b7100000000000000000000000000000000000000000000000000000000600052603260045260246000fd5b90600052602060002001548152602001908152602001600020604051806101400160405290816000820154815260200160018201805461192390615c4e565b80601f016020809104026020016040519081016040528092919081815260200182805461194f90615c4e565b801561199c5780601f106119715761010080835404028352916020019161199c565b820191906000526020600020905b81548152906001019060200180831161197f57829003601f168201915b505050505081526020016002820180546119b590615c4e565b80601f01602080910402602001604051908101604052809291908181526020018280546119e190615c4e565b8015611a2e5780601f10611a0357610100808354040283529160200191611a2e565b820191906000526020600020905b815481529060010190602001808311611a1157829003601f168201915b50505050508152602001600382016040518060400160405290816000820160009054906101000a900473ffffffffffffffffffffffffffffffffffffffff1673ffffffffffffffffffffffffffffffffffffffff1673ffffffffffffffffffffffffffffffffffffffff1681526020016001820154815250508152602001600582016040518060400160405290816000820160009054906101000a900473ffffffffffffffffffffffffffffffffffffffff1673ffffffffffffffffffffffffffffffffffffffff1673ffffffffffffffffffffffffffffffffffffffff16815260200160018201548152505081526020016007820160009054906101000a900460ff166003811115611b6a577f4e487b7100000000000000000000000000000000000000000000000000000000600052602160045260246000fd5b6003811115611ba2577f4e487b7100000000000000000000000000000000000000000000000000000000600052602160045260246000fd5b81526020016008820154815260200160098201548152602001600a8201548152602001600b820160009054906101000a900473ffffffffffffffffffffffffffffffffffffffff1673ffffffffffffffffffffffffffffffffffffffff1673ffffffffffffffffffffffffffffffffffffffff1681525050905060006003811115611c56577f4e487b7100000000000000000000000000000000000000000000000000000000600052602160045260246000fd5b8160a001516003811115611c93577f4e487b7100000000000000000000000000000000000000000000000000000000600052602160045260246000fd5b1415611ceb5780848480611ca690615cb1565b955081518110611cdf577f4e487b7100000000000000000000000000000000000000000000000000000000600052603260045260246000fd5b60200260200101819052505b5080611cf690615cb1565b905061189c565b5081935050505090565b6000611d116137c8565b90508073ffffffffffffffffffffffffffffffffffffffff1663a9059cbb338373ffffffffffffffffffffffffffffffffffffffff166370a08231306040518263ffffffff1660e01b8152600401611d699190615324565b60206040518083038186803b158015611d8157600080fd5b505afa158015611d95573d6000803e3d6000fd5b505050506040513d601f19601f82011682018060405250810190611db99190614cc3565b6040518363ffffffff1660e01b8152600401611dd69291906153d7565b602060405180830381600087803b158015611df057600080fd5b505af1158015611e04573d6000803e3d6000fd5b505050506040513d601f19601f82011682018060405250810190611e289190614ad2565b611e67576040517f08c379a0000000000000000000000000000000000000000000000000000000008152600401611e5e906156d2565b60405180910390fd5b50565b60006115189050600080600c600083815260200190815260200160002090508281600a0181905550600081600301600101549050600082600501600101549050611ebe8582611eb99190615a73565b612d35565b611ed28684611ecd9190615a73565b612d35565b13611f46578260030160000160009054906101000a900473ffffffffffffffffffffffffffffffffffffffff1683600b0160006101000a81548173ffffffffffffffffffffffffffffffffffffffff021916908373ffffffffffffffffffffffffffffffffffffffff160217905550611fb1565b8260050160000160009054906101000a900473ffffffffffffffffffffffffffffffffffffffff1683600b0160006101000a81548173ffffffffffffffffffffffffffffffffffffffff021916908373ffffffffffffffffffffffffffffffffffffffff1602179055505b611fe583600b0160009054906101000a900473ffffffffffffffffffffffffffffffffffffffff1684600a015484846137f2565b600083600b0160009054906101000a900473ffffffffffffffffffffffffffffffffffffffff1673ffffffffffffffffffffffffffffffffffffffff16600a5460026120319190615a19565b60405161203d906152d2565b60006040518083038185875af1925050503d806000811461207a576040519150601f19603f3d011682016040523d82523d6000602084013e61207f565b606091505b505090506120e66040518060400160405280601481526020017f53656e74206d6f6e657920746f2077696e6e657200000000000000000000000081525085600b0160009054906101000a900473ffffffffffffffffffffffffffffffffffffffff16612d57565b80156121445760028460070160006101000a81548160ff0219169083600381111561213a577f4e487b7100000000000000000000000000000000000000000000000000000000600052602160045260246000fd5b0217905550612198565b60038460070160006101000a81548160ff02191690836003811115612192577f4e487b7100000000000000000000000000000000000000000000000000000000600052602160045260246000fd5b02179055505b6122076040518060400160405280600a81526020017f42657420737461747573000000000000000000000000000000000000000000008152508560070160009054906101000a900460ff166040516020016121f391906151f2565b604051602081830303815290604052612c99565b505050505050565b60606000600d80549050905060008167ffffffffffffffff81111561225d577f4e487b7100000000000000000000000000000000000000000000000000000000600052604160045260246000fd5b60405190808252806020026020018201604052801561229657816020015b6122836146b1565b81526020019060019003908161227b5790505b509050600080600090505b838110156126ff576000600c6000600d84815481106122e9577f4e487b7100000000000000000000000000000000000000000000000000000000600052603260045260246000fd5b90600052602060002001548152602001908152602001600020604051806101400160405290816000820154815260200160018201805461232890615c4e565b80601f016020809104026020016040519081016040528092919081815260200182805461235490615c4e565b80156123a15780601f10612376576101008083540402835291602001916123a1565b820191906000526020600020905b81548152906001019060200180831161238457829003601f168201915b505050505081526020016002820180546123ba90615c4e565b80601f01602080910402602001604051908101604052809291908181526020018280546123e690615c4e565b80156124335780601f1061240857610100808354040283529160200191612433565b820191906000526020600020905b81548152906001019060200180831161241657829003601f168201915b50505050508152602001600382016040518060400160405290816000820160009054906101000a900473ffffffffffffffffffffffffffffffffffffffff1673ffffffffffffffffffffffffffffffffffffffff1673ffffffffffffffffffffffffffffffffffffffff1681526020016001820154815250508152602001600582016040518060400160405290816000820160009054906101000a900473ffffffffffffffffffffffffffffffffffffffff1673ffffffffffffffffffffffffffffffffffffffff1673ffffffffffffffffffffffffffffffffffffffff16815260200160018201548152505081526020016007820160009054906101000a900460ff16600381111561256f577f4e487b7100000000000000000000000000000000000000000000000000000000600052602160045260246000fd5b60038111156125a7577f4e487b7100000000000000000000000000000000000000000000000000000000600052602160045260246000fd5b81526020016008820154815260200160098201548152602001600a8201548152602001600b820160009054906101000a900473ffffffffffffffffffffffffffffffffffffffff1673ffffffffffffffffffffffffffffffffffffffff1673ffffffffffffffffffffffffffffffffffffffff168152505090503373ffffffffffffffffffffffffffffffffffffffff1681606001516000015173ffffffffffffffffffffffffffffffffffffffff16148061269657503373ffffffffffffffffffffffffffffffffffffffff1681608001516000015173ffffffffffffffffffffffffffffffffffffffff16145b156126ed57808484806126a890615cb1565b9550815181106126e1577f4e487b7100000000000000000000000000000000000000000000000000000000600052603260045260246000fd5b60200260200101819052505b50806126f890615cb1565b90506122a1565b5081935050505090565b612711611e6a565b565b565b600e82805160208101820180518482526020830160208501208183528095505050505050818154811061274757600080fd5b90600052602060002001600091509150505481565b6127f68383836040516024016127749392919061572d565b6040516020818303038152906040527f7d77a61b000000000000000000000000000000000000000000000000000000007bffffffffffffffffffffffffffffffffffffffffffffffffffffffff19166020820180517bffffffffffffffffffffffffffffffffffffffffffffffffffffffff8381831617835250505050613894565b505050565b61289583838360405160240161281393929190615392565b6040516020818303038152906040527ffb772265000000000000000000000000000000000000000000000000000000007bffffffffffffffffffffffffffffffffffffffffffffffffffffffff19166020820180517bffffffffffffffffffffffffffffffffffffffffffffffffffffffff8381831617835250505050613894565b505050565b612930816040516024016128ae919061552a565b6040516020818303038152906040527f41304fac000000000000000000000000000000000000000000000000000000007bffffffffffffffffffffffffffffffffffffffffffffffffffffffff19166020820180517bffffffffffffffffffffffffffffffffffffffffffffffffffffffff8381831617835250505050613894565b50565b60006129736040518060400160405280601e81526020017f496e207265717565737420636f6c6c656374696f6e2070726f7065727479000081525061289a565b600680600181540180825580915050600190039060005260206000200160006040518060400160405280601181526020017f696e20636861696e6c696e6b2063616c6c000000000000000000000000000000815250909190915090805190602001906129e092919061462b565b5060006129f760075430634357855e60e01b6138bd565b9050612a626040518060400160405280600381526020017f676574000000000000000000000000000000000000000000000000000000000081525085604051602001612a4391906152a5565b604051602081830303815290604052836138ee9092919063ffffffff16565b612ae16040518060400160405280600481526020017f70617468000000000000000000000000000000000000000000000000000000008152506040518060400160405280601181526020017f73746174732c666c6f6f725f7072696365000000000000000000000000000000815250836138ee9092919063ffffffff16565b6000670de0b6b3a76400009050612b386040518060400160405280600581526020017f74696d657300000000000000000000000000000000000000000000000000000081525082846139219092919063ffffffff16565b600680600181540180825580915050600190039060005260206000200160006040518060400160405280600681526020017f416d6f756e74000000000000000000000000000000000000000000000000000081525090919091509080519060200190612ba592919061462b565b50612be46040518060400160405280601481526020017f636f6e7665727465642074686520616d6f756e7400000000000000000000000081525061289a565b612bf082600854613954565b9250505092915050565b612c94838383604051602401612c129392919061560d565b6040516020818303038152906040527fa3f5c739000000000000000000000000000000000000000000000000000000007bffffffffffffffffffffffffffffffffffffffffffffffffffffffff19166020820180517bffffffffffffffffffffffffffffffffffffffffffffffffffffffff8381831617835250505050613894565b505050565b612d318282604051602401612caf9291906155d6565b6040516020818303038152906040527f4b5c4277000000000000000000000000000000000000000000000000000000007bffffffffffffffffffffffffffffffffffffffffffffffffffffffff19166020820180517bffffffffffffffffffffffffffffffffffffffffffffffffffffffff8381831617835250505050613894565b5050565b600080821215612d4e5781612d4990615d75565b612d50565b815b9050919050565b612def8282604051602401612d6d92919061554c565b6040516020818303038152906040527f319af333000000000000000000000000000000000000000000000000000000007bffffffffffffffffffffffffffffffffffffffffffffffffffffffff19166020820180517bffffffffffffffffffffffffffffffffffffffffffffffffffffffff8381831617835250505050613894565b5050565b612dfb6146b1565b6000600e612e09868661398b565b604051612e16919061525f565b9081526020016040518091039020805480602002602001604051908101604052809291908181526020018280548015612e6e57602002820191906000526020600020905b815481526020019060010190808311612e5a575b50505050509050600081511415612e9257612e8a8585856139b7565b91505061367d565b6000600c60008360018551612ea79190615b07565b81518110612ede577f4e487b7100000000000000000000000000000000000000000000000000000000600052603260045260246000fd5b602002602001015181526020019081526020016000206040518061014001604052908160008201548152602001600182018054612f1a90615c4e565b80601f0160208091040260200160405190810160405280929190818152602001828054612f4690615c4e565b8015612f935780601f10612f6857610100808354040283529160200191612f93565b820191906000526020600020905b815481529060010190602001808311612f7657829003601f168201915b50505050508152602001600282018054612fac90615c4e565b80601f0160208091040260200160405190810160405280929190818152602001828054612fd890615c4e565b80156130255780601f10612ffa57610100808354040283529160200191613025565b820191906000526020600020905b81548152906001019060200180831161300857829003601f168201915b50505050508152602001600382016040518060400160405290816000820160009054906101000a900473ffffffffffffffffffffffffffffffffffffffff1673ffffffffffffffffffffffffffffffffffffffff1673ffffffffffffffffffffffffffffffffffffffff1681526020016001820154815250508152602001600582016040518060400160405290816000820160009054906101000a900473ffffffffffffffffffffffffffffffffffffffff1673ffffffffffffffffffffffffffffffffffffffff1673ffffffffffffffffffffffffffffffffffffffff16815260200160018201548152505081526020016007820160009054906101000a900460ff166003811115613161577f4e487b7100000000000000000000000000000000000000000000000000000000600052602160045260246000fd5b6003811115613199577f4e487b7100000000000000000000000000000000000000000000000000000000600052602160045260246000fd5b81526020016008820154815260200160098201548152602001600a8201548152602001600b820160009054906101000a900473ffffffffffffffffffffffffffffffffffffffff1673ffffffffffffffffffffffffffffffffffffffff1673ffffffffffffffffffffffffffffffffffffffff168152505090506002600381111561324d577f4e487b7100000000000000000000000000000000000000000000000000000000600052602160045260246000fd5b8160a00151600381111561328a577f4e487b7100000000000000000000000000000000000000000000000000000000600052602160045260246000fd5b14156132a45761329b8686866139b7565b9250505061367d565b600060038111156132de577f4e487b7100000000000000000000000000000000000000000000000000000000600052602160045260246000fd5b8160a00151600381111561331b577f4e487b7100000000000000000000000000000000000000000000000000000000600052602160045260246000fd5b14156135bf573373ffffffffffffffffffffffffffffffffffffffff1681606001516000015173ffffffffffffffffffffffffffffffffffffffff161415613398576040517f08c379a000000000000000000000000000000000000000000000000000000000815260040161338f906156b2565b60405180910390fd5b83816080018190525080600c600084600186516133b59190615b07565b815181106133ec577f4e487b7100000000000000000000000000000000000000000000000000000000600052603260045260246000fd5b6020026020010151815260200190815260200160002060008201518160000155602082015181600101908051906020019061342892919061462b565b50604082015181600201908051906020019061344592919061462b565b5060608201518160030160008201518160000160006101000a81548173ffffffffffffffffffffffffffffffffffffffff021916908373ffffffffffffffffffffffffffffffffffffffff16021790555060208201518160010155505060808201518160050160008201518160000160006101000a81548173ffffffffffffffffffffffffffffffffffffffff021916908373ffffffffffffffffffffffffffffffffffffffff16021790555060208201518160010155505060a08201518160070160006101000a81548160ff0219169083600381111561354f577f4e487b7100000000000000000000000000000000000000000000000000000000600052602160045260246000fd5b021790555060c0820151816008015560e0820151816009015561010082015181600a015561012082015181600b0160006101000a81548173ffffffffffffffffffffffffffffffffffffffff021916908373ffffffffffffffffffffffffffffffffffffffff1602179055509050505b600160038111156135f9577f4e487b7100000000000000000000000000000000000000000000000000000000600052602160045260246000fd5b8160a001516003811115613636577f4e487b7100000000000000000000000000000000000000000000000000000000600052602160045260246000fd5b1415613677576040517f08c379a000000000000000000000000000000000000000000000000000000000815260040161366e90615672565b60405180910390fd5b80925050505b9392505050565b6137208484848460405160240161369e949392919061533f565b6040516020818303038152906040527f21bdaf25000000000000000000000000000000000000000000000000000000007bffffffffffffffffffffffffffffffffffffffffffffffffffffffff19166020820180517bffffffffffffffffffffffffffffffffffffffffffffffffffffffff8381831617835250505050613894565b50505050565b6137c284848484604051602401613740949392919061557c565b6040516020818303038152906040527f245986f2000000000000000000000000000000000000000000000000000000007bffffffffffffffffffffffffffffffffffffffffffffffffffffffff19166020820180517bffffffffffffffffffffffffffffffffffffffffffffffffffffffff8381831617835250505050613894565b50505050565b6000600260009054906101000a900473ffffffffffffffffffffffffffffffffffffffff16905090565b61388e8484848460405160240161380c94939291906154c3565b6040516020818303038152906040527f3d0e9de4000000000000000000000000000000000000000000000000000000007bffffffffffffffffffffffffffffffffffffffffffffffffffffffff19166020820180517bffffffffffffffffffffffffffffffffffffffffffffffffffffffff8381831617835250505050613894565b50505050565b60008151905060006a636f6e736f6c652e6c6f679050602083016000808483855afa5050505050565b6138c561475e565b6138cd61475e565b6138e485858584613cea909392919063ffffffff16565b9150509392505050565b613905828460800151613d9a90919063ffffffff16565b61391c818460800151613d9a90919063ffffffff16565b505050565b613938828460800151613d9a90919063ffffffff16565b61394f818460800151613dbf90919063ffffffff16565b505050565b6000613983600360009054906101000a900473ffffffffffffffffffffffffffffffffffffffff168484613e6c565b905092915050565b606082826040516020016139a0929190615276565b604051602081830303815290604052905092915050565b6139bf6146b1565b6000604051806101400160405280600d8054905081526020018681526020018581526020018481526020016040518060400160405280600073ffffffffffffffffffffffffffffffffffffffff1681526020016000815250815260200160006003811115613a56577f4e487b7100000000000000000000000000000000000000000000000000000000600052602160045260246000fd5b81526020014281526020016000815260200160008152602001600073ffffffffffffffffffffffffffffffffffffffff16815250905080600c600083600001518152602001908152602001600020600082015181600001556020820151816001019080519060200190613aca92919061462b565b506040820151816002019080519060200190613ae792919061462b565b5060608201518160030160008201518160000160006101000a81548173ffffffffffffffffffffffffffffffffffffffff021916908373ffffffffffffffffffffffffffffffffffffffff16021790555060208201518160010155505060808201518160050160008201518160000160006101000a81548173ffffffffffffffffffffffffffffffffffffffff021916908373ffffffffffffffffffffffffffffffffffffffff16021790555060208201518160010155505060a08201518160070160006101000a81548160ff02191690836003811115613bf1577f4e487b7100000000000000000000000000000000000000000000000000000000600052602160045260246000fd5b021790555060c0820151816008015560e0820151816009015561010082015181600a015561012082015181600b0160006101000a81548173ffffffffffffffffffffffffffffffffffffffff021916908373ffffffffffffffffffffffffffffffffffffffff160217905550905050600d81600001519080600181540180825580915050600190039060005260206000200160009091909190915055600e613c99868661398b565b604051613ca6919061525f565b908152602001604051809103902081600001519080600181540180825580915050600190039060005260206000200160009091909190915055809150509392505050565b613cf261475e565b613d028560800151610100613f38565b508385600001818152505082856020019073ffffffffffffffffffffffffffffffffffffffff16908173ffffffffffffffffffffffffffffffffffffffff16815250508185604001907bffffffffffffffffffffffffffffffffffffffffffffffffffffffff191690817bffffffffffffffffffffffffffffffffffffffffffffffffffffffff191681525050849050949350505050565b613da78260038351613fa2565b613dba818361412790919063ffffffff16565b505050565b7fffffffffffffffffffffffffffffffffffffffffffffffff0000000000000000811215613df657613df18282614149565b613e68565b67ffffffffffffffff811315613e1557613e1082826141c0565b613e67565b60008112613e2e57613e2982600083613fa2565b613e66565b613e65826001837fffffffffffffffffffffffffffffffffffffffffffffffffffffffffffffffff613e609190615a73565b613fa2565b5b5b5b5050565b6000806004549050600181613e819190615852565b6004819055506000634042994660e01b60008087600001513089604001518760018c6080015160000151604051602401613ec2989796959493929190615400565b604051602081830303815290604052907bffffffffffffffffffffffffffffffffffffffffffffffffffffffff19166020820180517bffffffffffffffffffffffffffffffffffffffffffffffffffffffff83818316178352505050509050613f2d8683868461420c565b925050509392505050565b613f406147cb565b6000602083613f4f9190615d44565b14613f7b57602082613f619190615d44565b6020613f6d9190615b07565b82613f789190615852565b91505b81836020018181525050604051808452600081528281016020016040525082905092915050565b60178167ffffffffffffffff1611613fd957613fd38160058460ff16901b60ff1617846143b090919063ffffffff16565b50614122565b60ff8167ffffffffffffffff161161402f57614008601860058460ff16901b17846143b090919063ffffffff16565b506140298167ffffffffffffffff166001856143d09092919063ffffffff16565b50614121565b61ffff8167ffffffffffffffff16116140865761405f601960058460ff16901b17846143b090919063ffffffff16565b506140808167ffffffffffffffff166002856143d09092919063ffffffff16565b50614120565b63ffffffff8167ffffffffffffffff16116140df576140b8601a60058460ff16901b17846143b090919063ffffffff16565b506140d98167ffffffffffffffff166004856143d09092919063ffffffff16565b5061411f565b6140fc601b60058460ff16901b17846143b090919063ffffffff16565b5061411d8167ffffffffffffffff166008856143d09092919063ffffffff16565b505b5b5b5b505050565b61412f6147cb565b614141838460000151518485516143f2565b905092915050565b61416760036005600660ff16901b17836143b090919063ffffffff16565b506141bc82827fffffffffffffffffffffffffffffffffffffffffffffffffffffffffffffffff6141989190615a73565b6040516020016141a89190615712565b6040516020818303038152906040526144e1565b5050565b6141de60026005600660ff16901b17836143b090919063ffffffff16565b5061420882826040516020016141f49190615712565b6040516020818303038152906040526144e1565b5050565b600030846040516020016142219291906151c6565b604051602081830303815290604052805190602001209050846005600083815260200190815260200160002060006101000a81548173ffffffffffffffffffffffffffffffffffffffff021916908373ffffffffffffffffffffffffffffffffffffffff160217905550807fb5e6e01e79f91267dc17b4e6314d5d4d03593d2ceee0fbb452b750bd70ea5af960405160405180910390a2600260009054906101000a900473ffffffffffffffffffffffffffffffffffffffff1673ffffffffffffffffffffffffffffffffffffffff16634000aea08685856040518463ffffffff1660e01b815260040161431793929190615485565b602060405180830381600087803b15801561433157600080fd5b505af1158015614345573d6000803e3d6000fd5b505050506040513d601f19601f820116820180604052508101906143699190614ad2565b6143a8576040517f08c379a000000000000000000000000000000000000000000000000000000000815260040161439f90615652565b60405180910390fd5b949350505050565b6143b86147cb565b6143c88384600001515184614506565b905092915050565b6143d86147cb565b6143e984856000015151858561455d565b90509392505050565b6143fa6147cb565b825182111561440857600080fd5b846020015182856144199190615852565b111561444e5761444d85600261443e886020015188876144399190615852565b6145eb565b6144489190615a19565b614607565b5b60008086518051876020830101935080888701111561446d5787860182525b60208701925050505b602084106144b4578051825260208261448f9190615852565b915060208161449e9190615852565b90506020846144ad9190615b07565b9350614476565b60006001856020036101000a03905080198251168184511681811785525050508692505050949350505050565b6144ee8260028351613fa2565b614501818361412790919063ffffffff16565b505050565b61450e6147cb565b8360200151831061453457614533846002866020015161452e9190615a19565b614607565b5b8351805160208583010184815381861415614550576001820183525b5050508390509392505050565b6145656147cb565b846020015184836145769190615852565b111561459e5761459d856002868561458e9190615852565b6145989190615a19565b614607565b5b60006001836101006145b091906158fb565b6145ba9190615b07565b905085518386820101858319825116178152815185880111156145dd5784870182525b505085915050949350505050565b6000818311156145fd57829050614601565b8190505b92915050565b60008260000151905061461a8383613f38565b506146258382614127565b50505050565b82805461463790615c4e565b90600052602060002090601f01602090048101928261465957600085556146a0565b82601f1061467257805160ff19168380011785556146a0565b828001600101855582156146a0579182015b8281111561469f578251825591602001919060010190614684565b5b5090506146ad91906147e5565b5090565b6040518061014001604052806000815260200160608152602001606081526020016146da614802565b81526020016146e7614802565b815260200160006003811115614726577f4e487b7100000000000000000000000000000000000000000000000000000000600052602160045260246000fd5b8152602001600081526020016000815260200160008152602001600073ffffffffffffffffffffffffffffffffffffffff1681525090565b6040518060a0016040528060008019168152602001600073ffffffffffffffffffffffffffffffffffffffff16815260200160007bffffffffffffffffffffffffffffffffffffffffffffffffffffffff19168152602001600081526020016147c56147cb565b81525090565b604051806040016040528060608152602001600081525090565b5b808211156147fe5760008160009055506001016147e6565b5090565b6040518060400160405280600073ffffffffffffffffffffffffffffffffffffffff168152602001600081525090565b600061484561484084615789565b615764565b90508281526020810184848401111561485d57600080fd5b614868848285615c0c565b509392505050565b60008135905061487f816160db565b92915050565b600081519050614894816160f2565b92915050565b6000813590506148a981616109565b92915050565b6000813590506148be81616120565b92915050565b60008083601f8401126148d657600080fd5b8235905067ffffffffffffffff8111156148ef57600080fd5b60208301915083600182028301111561490757600080fd5b9250929050565b600082601f83011261491f57600080fd5b813561492f848260208601614832565b91505092915050565b6000610180828403121561494b57600080fd5b614956610140615764565b9050600061496684828501614aa8565b600083015250602082013567ffffffffffffffff81111561498657600080fd5b6149928482850161490e565b602083015250604082013567ffffffffffffffff8111156149b257600080fd5b6149be8482850161490e565b60408301525060606149d284828501614a5c565b60608301525060a06149e684828501614a5c565b60808301525060e06149fa848285016148af565b60a083015250610100614a0f84828501614aa8565b60c083015250610120614a2484828501614aa8565b60e083015250610140614a3984828501614aa8565b61010083015250610160614a4f84828501614870565b6101208301525092915050565b600060408284031215614a6e57600080fd5b614a786040615764565b90506000614a8884828501614870565b6000830152506020614a9c84828501614aa8565b60208301525092915050565b600081359050614ab781616130565b92915050565b600081519050614acc81616130565b92915050565b600060208284031215614ae457600080fd5b6000614af284828501614885565b91505092915050565b60008060408385031215614b0e57600080fd5b6000614b1c8582860161489a565b9250506020614b2d85828601614aa8565b9150509250929050565b60008060208385031215614b4a57600080fd5b600083013567ffffffffffffffff811115614b6457600080fd5b614b70858286016148c4565b92509250509250929050565b600080600080600060608688031215614b9457600080fd5b600086013567ffffffffffffffff811115614bae57600080fd5b614bba888289016148c4565b9550955050602086013567ffffffffffffffff811115614bd957600080fd5b614be5888289016148c4565b93509350506040614bf888828901614aa8565b9150509295509295909350565b60008060408385031215614c1857600080fd5b600083013567ffffffffffffffff811115614c3257600080fd5b614c3e8582860161490e565b9250506020614c4f85828601614aa8565b9150509250929050565b600060208284031215614c6b57600080fd5b600082013567ffffffffffffffff811115614c8557600080fd5b614c9184828501614938565b91505092915050565b600060208284031215614cac57600080fd5b6000614cba84828501614aa8565b91505092915050565b600060208284031215614cd557600080fd5b6000614ce384828501614abd565b91505092915050565b6000614cf88383615064565b905092915050565b614d0981615b3b565b82525050565b614d1881615b3b565b82525050565b6000614d29826157ca565b614d3381856157f8565b935083602082028501614d45856157ba565b8060005b85811015614d815784840389528151614d628582614cec565b9450614d6d836157eb565b925060208a01995050600181019050614d49565b50829750879550505050505092915050565b614d9c81615b59565b82525050565b614db3614dae82615b59565b615d0c565b82525050565b614dc281615b63565b82525050565b6000614dd3826157d5565b614ddd8185615809565b9350614ded818560208601615c1b565b614df681615ea9565b840191505092915050565b614e12614e0d82615bd6565b615cfa565b82525050565b614e2181615bfa565b82525050565b614e38614e3382615bfa565b615d32565b82525050565b6000614e4a8385615847565b9350614e57838584615c0c565b82840190509392505050565b6000614e6e826157e0565b614e788185615825565b9350614e88818560208601615c1b565b614e9181615ea9565b840191505092915050565b6000614ea7826157e0565b614eb18185615836565b9350614ec1818560208601615c1b565b614eca81615ea9565b840191505092915050565b6000614ee0826157e0565b614eea8185615847565b9350614efa818560208601615c1b565b80840191505092915050565b6000614f13602383615836565b9150614f1e82615ee1565b604082019050919050565b6000614f36601c83615836565b9150614f4182615f30565b602082019050919050565b6000614f59601583615836565b9150614f6482615f59565b602082019050919050565b6000614f7c601783615836565b9150614f8782615f82565b602082019050919050565b6000614f9f603283615847565b9150614faa82615fab565b603282019050919050565b6000614fc2601283615836565b9150614fcd82615ffa565b602082019050919050565b6000614fe5601383615847565b9150614ff082616023565b601382019050919050565b600061500860008361581a565b91506150138261604c565b600082019050919050565b600061502b600183615847565b91506150368261604f565b600182019050919050565b600061504e602883615836565b915061505982616078565b604082019050919050565b60006101808301600083015161507d6000860182615176565b50602083015184820360208601526150958282614e63565b915050604083015184820360408601526150af8282614e63565b91505060608301516150c46060860182615147565b5060808301516150d760a0860182615147565b5060a08301516150ea60e0860182614e18565b5060c08301516150fe610100860182615176565b5060e0830151615112610120860182615176565b50610100830151615127610140860182615176565b5061012083015161513c610160860182614d00565b508091505092915050565b60408201600082015161515d6000850182614d00565b5060208201516151706020850182615176565b50505050565b61517f81615bcc565b82525050565b61518e81615bcc565b82525050565b6151a56151a082615bcc565b615d28565b82525050565b60006151b78284614da2565b60208201915081905092915050565b60006151d28285614e01565b6014820191506151e28284615194565b6020820191508190509392505050565b60006151fe8284614e27565b60018201915081905092915050565b600061521a828486614e3e565b91508190509392505050565b6000615233828789614e3e565b9150615240828587614e3e565b915061524c8284615194565b6020820191508190509695505050505050565b600061526b8284614ed5565b915081905092915050565b60006152828285614ed5565b915061528d8261501e565b91506152998284614ed5565b91508190509392505050565b60006152b082614f92565b91506152bc8284614ed5565b91506152c782614fd8565b915081905092915050565b60006152dd82614ffb565b9150819050919050565b60006152f38286615194565b6020820191506153038285615194565b6020820191506153138284615194565b602082019150819050949350505050565b60006020820190506153396000830184614d0f565b92915050565b60006080820190506153546000830187614d0f565b6153616020830186614d0f565b81810360408301526153738185614e9c565b905081810360608301526153878184614e9c565b905095945050505050565b60006060820190506153a76000830186614d0f565b81810360208301526153b98185614e9c565b905081810360408301526153cd8184614e9c565b9050949350505050565b60006040820190506153ec6000830185614d0f565b6153f96020830184615185565b9392505050565b600061010082019050615416600083018b614d0f565b615423602083018a615185565b6154306040830189614d93565b61543d6060830188614d0f565b61544a6080830187614db9565b61545760a0830186615185565b61546460c0830185615185565b81810360e08301526154768184614dc8565b90509998505050505050505050565b600060608201905061549a6000830186614d0f565b6154a76020830185615185565b81810360408301526154b98184614dc8565b9050949350505050565b60006080820190506154d86000830187614d0f565b6154e56020830186615185565b6154f26040830185615185565b6154ff6060830184615185565b95945050505050565b600060208201905081810360008301526155228184614d1e565b905092915050565b600060208201905081810360008301526155448184614e9c565b905092915050565b600060408201905081810360008301526155668185614e9c565b90506155756020830184614d0f565b9392505050565b600060808201905081810360008301526155968187614e9c565b90506155a56020830186614d0f565b81810360408301526155b78185614e9c565b905081810360608301526155cb8184614e9c565b905095945050505050565b600060408201905081810360008301526155f08185614e9c565b905081810360208301526156048184614e9c565b90509392505050565b600060608201905081810360008301526156278186614e9c565b90506156366020830185615185565b81810360408301526156488184614e9c565b9050949350505050565b6000602082019050818103600083015261566b81614f06565b9050919050565b6000602082019050818103600083015261568b81614f29565b9050919050565b600060208201905081810360008301526156ab81614f4c565b9050919050565b600060208201905081810360008301526156cb81614f6f565b9050919050565b600060208201905081810360008301526156eb81614fb5565b9050919050565b6000602082019050818103600083015261570b81615041565b9050919050565b60006020820190506157276000830184615185565b92915050565b60006060820190506157426000830186615185565b61574f6020830185614d0f565b61575c6040830184614d0f565b949350505050565b600061576e61577f565b905061577a8282615c80565b919050565b6000604051905090565b600067ffffffffffffffff8211156157a4576157a3615e7a565b5b6157ad82615ea9565b9050602081019050919050565b6000819050602082019050919050565b600081519050919050565b600081519050919050565b600081519050919050565b6000602082019050919050565b600082825260208201905092915050565b600082825260208201905092915050565b600081905092915050565b600082825260208201905092915050565b600082825260208201905092915050565b600081905092915050565b600061585d82615bcc565b915061586883615bcc565b9250827fffffffffffffffffffffffffffffffffffffffffffffffffffffffffffffffff0382111561589d5761589c615dbe565b5b828201905092915050565b6000808291508390505b60018511156158f2578086048111156158ce576158cd615dbe565b5b60018516156158dd5780820291505b80810290506158eb85615ed4565b94506158b2565b94509492505050565b600061590682615bcc565b915061591183615bcc565b925061593e7fffffffffffffffffffffffffffffffffffffffffffffffffffffffffffffffff8484615946565b905092915050565b6000826159565760019050615a12565b816159645760009050615a12565b816001811461597a5760028114615984576159b3565b6001915050615a12565b60ff84111561599657615995615dbe565b5b8360020a9150848211156159ad576159ac615dbe565b5b50615a12565b5060208310610133831016604e8410600b84101617156159e85782820a9050838111156159e3576159e2615dbe565b5b615a12565b6159f584848460016158a8565b92509050818404811115615a0c57615a0b615dbe565b5b81810290505b9392505050565b6000615a2482615bcc565b9150615a2f83615bcc565b9250817fffffffffffffffffffffffffffffffffffffffffffffffffffffffffffffffff0483118215151615615a6857615a67615dbe565b5b828202905092915050565b6000615a7e82615ba2565b9150615a8983615ba2565b9250827f800000000000000000000000000000000000000000000000000000000000000001821260008412151615615ac457615ac3615dbe565b5b827f7fffffffffffffffffffffffffffffffffffffffffffffffffffffffffffffff018213600084121615615afc57615afb615dbe565b5b828203905092915050565b6000615b1282615bcc565b9150615b1d83615bcc565b925082821015615b3057615b2f615dbe565b5b828203905092915050565b6000615b4682615bac565b9050919050565b60008115159050919050565b6000819050919050565b60007fffffffff0000000000000000000000000000000000000000000000000000000082169050919050565b6000819050615b9d826160c7565b919050565b6000819050919050565b600073ffffffffffffffffffffffffffffffffffffffff82169050919050565b6000819050919050565b6000615be182615be8565b9050919050565b6000615bf382615bac565b9050919050565b6000615c0582615b8f565b9050919050565b82818337600083830152505050565b60005b83811015615c39578082015181840152602081019050615c1e565b83811115615c48576000848401525b50505050565b60006002820490506001821680615c6657607f821691505b60208210811415615c7a57615c79615e4b565b5b50919050565b615c8982615ea9565b810181811067ffffffffffffffff82111715615ca857615ca7615e7a565b5b80604052505050565b6000615cbc82615bcc565b91507fffffffffffffffffffffffffffffffffffffffffffffffffffffffffffffffff821415615cef57615cee615dbe565b5b600182019050919050565b6000615d0582615d16565b9050919050565b6000819050919050565b6000615d2182615ec7565b9050919050565b6000819050919050565b6000615d3d82615eba565b9050919050565b6000615d4f82615bcc565b9150615d5a83615bcc565b925082615d6a57615d69615ded565b5b828206905092915050565b6000615d8082615ba2565b91507f8000000000000000000000000000000000000000000000000000000000000000821415615db357615db2615dbe565b5b816000039050919050565b7f4e487b7100000000000000000000000000000000000000000000000000000000600052601160045260246000fd5b7f4e487b7100000000000000000000000000000000000000000000000000000000600052601260045260246000fd5b7f4e487b7100000000000000000000000000000000000000000000000000000000600052602160045260246000fd5b7f4e487b7100000000000000000000000000000000000000000000000000000000600052602260045260246000fd5b7f4e487b7100000000000000000000000000000000000000000000000000000000600052604160045260246000fd5b6000601f19601f8301169050919050565b60008160f81b9050919050565b60008160601b9050919050565b60008160011c9050919050565b7f756e61626c6520746f207472616e73666572416e6443616c6c20746f206f726160008201527f636c650000000000000000000000000000000000000000000000000000000000602082015250565b7f4d6178696d756d207573657273206578636565646564206572726f7200000000600082015250565b7f4661696c656420746f2073656e64204574686572210000000000000000000000600082015250565b7f5573657220616c726561647920706c6163656420626964000000000000000000600082015250565b7f68747470733a2f2f746573746e6574732d6170692e6f70656e7365612e696f2f60008201527f6170692f76312f636f6c6c656374696f6e2f0000000000000000000000000000602082015250565b7f556e61626c6520746f207472616e736665720000000000000000000000000000600082015250565b7f2f73746174732f3f666f726d61743d6a736f6e00000000000000000000000000600082015250565b50565b7f5f00000000000000000000000000000000000000000000000000000000000000600082015250565b7f536f75726365206d75737420626520746865206f7261636c65206f662074686560008201527f2072657175657374000000000000000000000000000000000000000000000000602082015250565b600481106160d8576160d7615e1c565b5b50565b6160e481615b3b565b81146160ef57600080fd5b50565b6160fb81615b4d565b811461610657600080fd5b50565b61611281615b59565b811461611d57600080fd5b50565b6004811061612d57600080fd5b50565b61613981615bcc565b811461614457600080fd5b5056fea2646970667358221220ebb289c505e2a45a0a64525c4e15af1146d22b43aaa918d6d1fb64f08458d81f64736f6c63430008010033",
  "linkReferences": {},
  "deployedLinkReferences": {}
}